{
  "address": "0xfa9882F44Ca3963a1445F463C6e8097754a61B49",
  "abi": [
    {
      "anonymous": false,
      "inputs": [
        {
          "indexed": false,
          "internalType": "address",
          "name": "previousAdmin",
          "type": "address"
        },
        {
          "indexed": false,
          "internalType": "address",
          "name": "newAdmin",
          "type": "address"
        }
      ],
      "name": "AdminChanged",
      "type": "event"
    },
    {
      "anonymous": false,
      "inputs": [
        {
          "indexed": true,
          "internalType": "address",
          "name": "beacon",
          "type": "address"
        }
      ],
      "name": "BeaconUpgraded",
      "type": "event"
    },
    {
      "anonymous": false,
      "inputs": [
        {
          "indexed": true,
          "internalType": "address",
          "name": "_by",
          "type": "address"
        },
        {
          "indexed": true,
          "internalType": "address",
          "name": "_beneficiary",
          "type": "address"
        }
      ],
      "name": "BeneficiaryUpdated",
      "type": "event"
    },
    {
      "anonymous": false,
      "inputs": [
        {
          "indexed": true,
          "internalType": "address",
          "name": "_by",
          "type": "address"
        },
        {
          "indexed": false,
          "internalType": "uint32",
          "name": "_saleStart",
          "type": "uint32"
        },
        {
          "indexed": false,
          "internalType": "uint32",
          "name": "_saleEnd",
          "type": "uint32"
        },
        {
          "indexed": false,
          "internalType": "uint32",
          "name": "_halvingTime",
          "type": "uint32"
        },
        {
          "indexed": false,
          "internalType": "uint32",
          "name": "_timeFlowQuantum",
          "type": "uint32"
        },
        {
          "indexed": false,
          "internalType": "uint32",
          "name": "_seqDuration",
          "type": "uint32"
        },
        {
          "indexed": false,
          "internalType": "uint32",
          "name": "_seqOffset",
          "type": "uint32"
        },
        {
          "indexed": false,
          "internalType": "uint96[]",
          "name": "_startPrices",
          "type": "uint96[]"
        }
      ],
      "name": "Initialized",
      "type": "event"
    },
    {
      "anonymous": false,
      "inputs": [
        {
          "indexed": true,
          "internalType": "address",
          "name": "_by",
          "type": "address"
        },
        {
          "indexed": false,
          "internalType": "uint32",
          "name": "_pausedAt",
          "type": "uint32"
        }
      ],
      "name": "Paused",
      "type": "event"
    },
    {
      "anonymous": false,
      "inputs": [
        {
          "indexed": true,
          "internalType": "address",
          "name": "_by",
          "type": "address"
        },
        {
          "indexed": true,
          "internalType": "uint32",
          "name": "_tokenId",
          "type": "uint32"
        },
        {
          "indexed": true,
          "internalType": "uint32",
          "name": "_sequenceId",
          "type": "uint32"
        },
        {
          "components": [
            {
              "internalType": "uint8",
              "name": "version",
              "type": "uint8"
            },
            {
              "internalType": "uint8",
              "name": "regionId",
              "type": "uint8"
            },
            {
              "internalType": "uint16",
              "name": "x",
              "type": "uint16"
            },
            {
              "internalType": "uint16",
              "name": "y",
              "type": "uint16"
            },
            {
              "internalType": "uint8",
              "name": "tierId",
              "type": "uint8"
            },
            {
              "internalType": "uint16",
              "name": "size",
              "type": "uint16"
            },
            {
              "internalType": "uint8",
              "name": "landmarkTypeId",
              "type": "uint8"
            },
            {
              "internalType": "uint8",
              "name": "elementSites",
              "type": "uint8"
            },
            {
              "internalType": "uint8",
              "name": "fuelSites",
              "type": "uint8"
            },
            {
              "internalType": "uint160",
              "name": "seed",
              "type": "uint160"
            }
          ],
          "indexed": false,
          "internalType": "struct LandLib.PlotStore",
          "name": "_plot",
          "type": "tuple"
        },
        {
          "indexed": false,
          "internalType": "uint256",
          "name": "_eth",
          "type": "uint256"
        },
        {
          "indexed": false,
          "internalType": "uint256",
          "name": "_sIlv",
          "type": "uint256"
        }
      ],
      "name": "PlotBought",
      "type": "event"
    },
    {
      "anonymous": false,
      "inputs": [
        {
          "indexed": true,
          "internalType": "address",
          "name": "_by",
          "type": "address"
        },
        {
          "indexed": false,
          "internalType": "uint32",
          "name": "_pausedAt",
          "type": "uint32"
        },
        {
          "indexed": false,
          "internalType": "uint32",
          "name": "_resumedAt",
          "type": "uint32"
        },
        {
          "indexed": false,
          "internalType": "uint32",
          "name": "_pauseDuration",
          "type": "uint32"
        }
      ],
      "name": "Resumed",
      "type": "event"
    },
    {
      "anonymous": false,
      "inputs": [
        {
          "indexed": true,
          "internalType": "address",
          "name": "_by",
          "type": "address"
        },
        {
          "indexed": true,
          "internalType": "address",
          "name": "_to",
          "type": "address"
        },
        {
          "indexed": false,
          "internalType": "uint256",
          "name": "_requested",
          "type": "uint256"
        },
        {
          "indexed": false,
          "internalType": "uint256",
          "name": "_actual",
          "type": "uint256"
        }
      ],
      "name": "RoleUpdated",
      "type": "event"
    },
    {
      "anonymous": false,
      "inputs": [
        {
          "indexed": true,
          "internalType": "address",
          "name": "_by",
          "type": "address"
        },
        {
          "indexed": false,
          "internalType": "bytes32",
          "name": "_root",
          "type": "bytes32"
        }
      ],
      "name": "RootChanged",
      "type": "event"
    },
    {
      "anonymous": false,
      "inputs": [
        {
          "indexed": true,
          "internalType": "address",
          "name": "implementation",
          "type": "address"
        }
      ],
      "name": "Upgraded",
      "type": "event"
    },
    {
      "anonymous": false,
      "inputs": [
        {
          "indexed": true,
          "internalType": "address",
          "name": "_by",
          "type": "address"
        },
        {
          "indexed": true,
          "internalType": "address",
          "name": "_to",
          "type": "address"
        },
        {
          "indexed": false,
          "internalType": "uint256",
          "name": "_eth",
          "type": "uint256"
        },
        {
          "indexed": false,
          "internalType": "uint256",
          "name": "_sIlv",
          "type": "uint256"
        }
      ],
      "name": "Withdrawn",
      "type": "event"
    },
    {
      "inputs": [],
      "name": "FEATURE_SALE_ACTIVE",
      "outputs": [
        {
          "internalType": "uint32",
          "name": "",
          "type": "uint32"
        }
      ],
      "stateMutability": "view",
      "type": "function"
    },
    {
      "inputs": [],
      "name": "ROLE_ACCESS_MANAGER",
      "outputs": [
        {
          "internalType": "uint256",
          "name": "",
          "type": "uint256"
        }
      ],
      "stateMutability": "view",
      "type": "function"
    },
    {
      "inputs": [],
      "name": "ROLE_DATA_MANAGER",
      "outputs": [
        {
          "internalType": "uint32",
          "name": "",
          "type": "uint32"
        }
      ],
      "stateMutability": "view",
      "type": "function"
    },
    {
      "inputs": [],
      "name": "ROLE_PAUSE_MANAGER",
      "outputs": [
        {
          "internalType": "uint32",
          "name": "",
          "type": "uint32"
        }
      ],
      "stateMutability": "view",
      "type": "function"
    },
    {
      "inputs": [],
      "name": "ROLE_RESCUE_MANAGER",
      "outputs": [
        {
          "internalType": "uint32",
          "name": "",
          "type": "uint32"
        }
      ],
      "stateMutability": "view",
      "type": "function"
    },
    {
      "inputs": [],
      "name": "ROLE_SALE_MANAGER",
      "outputs": [
        {
          "internalType": "uint32",
          "name": "",
          "type": "uint32"
        }
      ],
      "stateMutability": "view",
      "type": "function"
    },
    {
      "inputs": [],
      "name": "ROLE_UPGRADE_MANAGER",
      "outputs": [
        {
          "internalType": "uint256",
          "name": "",
          "type": "uint256"
        }
      ],
      "stateMutability": "view",
      "type": "function"
    },
    {
      "inputs": [],
      "name": "ROLE_WITHDRAWAL_MANAGER",
      "outputs": [
        {
          "internalType": "uint32",
          "name": "",
          "type": "uint32"
        }
      ],
      "stateMutability": "view",
      "type": "function"
    },
    {
      "inputs": [],
      "name": "beneficiary",
      "outputs": [
        {
          "internalType": "address payable",
          "name": "",
          "type": "address"
        }
      ],
      "stateMutability": "view",
      "type": "function"
    },
    {
      "inputs": [
        {
          "components": [
            {
              "internalType": "uint32",
              "name": "tokenId",
              "type": "uint32"
            },
            {
              "internalType": "uint32",
              "name": "sequenceId",
              "type": "uint32"
            },
            {
              "internalType": "uint8",
              "name": "regionId",
              "type": "uint8"
            },
            {
              "internalType": "uint16",
              "name": "x",
              "type": "uint16"
            },
            {
              "internalType": "uint16",
              "name": "y",
              "type": "uint16"
            },
            {
              "internalType": "uint8",
              "name": "tierId",
              "type": "uint8"
            },
            {
              "internalType": "uint16",
              "name": "size",
              "type": "uint16"
            }
          ],
          "internalType": "struct LandSale.PlotData",
          "name": "plotData",
          "type": "tuple"
        },
        {
          "internalType": "bytes32[]",
          "name": "proof",
          "type": "bytes32[]"
        }
      ],
      "name": "buy",
      "outputs": [],
      "stateMutability": "payable",
      "type": "function"
    },
    {
      "inputs": [
        {
          "internalType": "address",
          "name": "operator",
          "type": "address"
        },
        {
          "internalType": "uint256",
          "name": "target",
          "type": "uint256"
        },
        {
          "internalType": "uint256",
          "name": "desired",
          "type": "uint256"
        }
      ],
      "name": "evaluateBy",
      "outputs": [
        {
          "internalType": "uint256",
          "name": "",
          "type": "uint256"
        }
      ],
      "stateMutability": "view",
      "type": "function"
    },
    {
      "inputs": [],
      "name": "features",
      "outputs": [
        {
          "internalType": "uint256",
          "name": "",
          "type": "uint256"
        }
      ],
      "stateMutability": "view",
      "type": "function"
    },
    {
      "inputs": [],
      "name": "getImplementation",
      "outputs": [
        {
          "internalType": "address",
          "name": "",
          "type": "address"
        }
      ],
      "stateMutability": "view",
      "type": "function"
    },
    {
      "inputs": [],
      "name": "getStartPrices",
      "outputs": [
        {
          "internalType": "uint96[]",
          "name": "",
          "type": "uint96[]"
        }
      ],
      "stateMutability": "view",
      "type": "function"
    },
    {
      "inputs": [],
      "name": "halvingTime",
      "outputs": [
        {
          "internalType": "uint32",
          "name": "",
          "type": "uint32"
        }
      ],
      "stateMutability": "view",
      "type": "function"
    },
    {
      "inputs": [
        {
          "internalType": "uint32",
          "name": "_saleStart",
          "type": "uint32"
        },
        {
          "internalType": "uint32",
          "name": "_saleEnd",
          "type": "uint32"
        },
        {
          "internalType": "uint32",
          "name": "_halvingTime",
          "type": "uint32"
        },
        {
          "internalType": "uint32",
          "name": "_timeFlowQuantum",
          "type": "uint32"
        },
        {
          "internalType": "uint32",
          "name": "_seqDuration",
          "type": "uint32"
        },
        {
          "internalType": "uint32",
          "name": "_seqOffset",
          "type": "uint32"
        },
        {
          "internalType": "uint96[]",
          "name": "_startPrices",
          "type": "uint96[]"
        }
      ],
      "name": "initialize",
      "outputs": [],
      "stateMutability": "nonpayable",
      "type": "function"
    },
    {
      "inputs": [],
      "name": "isActive",
      "outputs": [
        {
          "internalType": "bool",
          "name": "",
          "type": "bool"
        }
      ],
      "stateMutability": "view",
      "type": "function"
    },
    {
      "inputs": [
        {
          "internalType": "uint256",
          "name": "required",
          "type": "uint256"
        }
      ],
      "name": "isFeatureEnabled",
      "outputs": [
        {
          "internalType": "bool",
          "name": "",
          "type": "bool"
        }
      ],
      "stateMutability": "view",
      "type": "function"
    },
    {
      "inputs": [
        {
          "internalType": "address",
          "name": "operator",
          "type": "address"
        },
        {
          "internalType": "uint256",
          "name": "required",
          "type": "uint256"
        }
      ],
      "name": "isOperatorInRole",
      "outputs": [
        {
          "internalType": "bool",
          "name": "",
          "type": "bool"
        }
      ],
      "stateMutability": "view",
      "type": "function"
    },
    {
      "inputs": [
        {
          "components": [
            {
              "internalType": "uint32",
              "name": "tokenId",
              "type": "uint32"
            },
            {
              "internalType": "uint32",
              "name": "sequenceId",
              "type": "uint32"
            },
            {
              "internalType": "uint8",
              "name": "regionId",
              "type": "uint8"
            },
            {
              "internalType": "uint16",
              "name": "x",
              "type": "uint16"
            },
            {
              "internalType": "uint16",
              "name": "y",
              "type": "uint16"
            },
            {
              "internalType": "uint8",
              "name": "tierId",
              "type": "uint8"
            },
            {
              "internalType": "uint16",
              "name": "size",
              "type": "uint16"
            }
          ],
          "internalType": "struct LandSale.PlotData",
          "name": "plotData",
          "type": "tuple"
        },
        {
          "internalType": "bytes32[]",
          "name": "proof",
          "type": "bytes32[]"
        }
      ],
      "name": "isPlotValid",
      "outputs": [
        {
          "internalType": "bool",
          "name": "",
          "type": "bool"
        }
      ],
      "stateMutability": "view",
      "type": "function"
    },
    {
      "inputs": [
        {
          "internalType": "uint256",
          "name": "required",
          "type": "uint256"
        }
      ],
      "name": "isSenderInRole",
      "outputs": [
        {
          "internalType": "bool",
          "name": "",
          "type": "bool"
        }
      ],
      "stateMutability": "view",
      "type": "function"
    },
    {
      "inputs": [],
      "name": "now32",
      "outputs": [
        {
          "internalType": "uint32",
          "name": "",
          "type": "uint32"
        }
      ],
      "stateMutability": "view",
      "type": "function"
    },
    {
      "inputs": [],
      "name": "ownTime",
      "outputs": [
        {
          "internalType": "uint32",
          "name": "",
          "type": "uint32"
        }
      ],
      "stateMutability": "view",
      "type": "function"
    },
    {
      "inputs": [],
      "name": "pause",
      "outputs": [],
      "stateMutability": "nonpayable",
      "type": "function"
    },
    {
      "inputs": [],
      "name": "pauseDuration",
      "outputs": [
        {
          "internalType": "uint32",
          "name": "",
          "type": "uint32"
        }
      ],
      "stateMutability": "view",
      "type": "function"
    },
    {
      "inputs": [],
      "name": "pausedAt",
      "outputs": [
        {
          "internalType": "uint32",
          "name": "",
          "type": "uint32"
        }
      ],
      "stateMutability": "view",
      "type": "function"
    },
    {
      "inputs": [
        {
          "internalType": "address",
          "name": "_nft",
          "type": "address"
        },
        {
          "internalType": "address",
          "name": "_sIlv",
          "type": "address"
        },
        {
          "internalType": "address",
          "name": "_oracle",
          "type": "address"
        }
      ],
      "name": "postConstruct",
      "outputs": [],
      "stateMutability": "nonpayable",
      "type": "function"
    },
    {
      "inputs": [
        {
          "internalType": "uint256",
          "name": "p0",
          "type": "uint256"
        },
        {
          "internalType": "uint256",
          "name": "t0",
          "type": "uint256"
        },
        {
          "internalType": "uint256",
          "name": "t",
          "type": "uint256"
        }
      ],
      "name": "price",
      "outputs": [
        {
          "internalType": "uint256",
          "name": "",
          "type": "uint256"
        }
      ],
      "stateMutability": "pure",
      "type": "function"
    },
    {
      "inputs": [],
      "name": "priceOracle",
      "outputs": [
        {
          "internalType": "address",
          "name": "",
          "type": "address"
        }
      ],
      "stateMutability": "view",
      "type": "function"
    },
    {
      "inputs": [
        {
          "internalType": "address",
          "name": "_contract",
          "type": "address"
        },
        {
          "internalType": "address",
          "name": "_to",
          "type": "address"
        },
        {
          "internalType": "uint256",
          "name": "_value",
          "type": "uint256"
        }
      ],
      "name": "rescueErc20",
      "outputs": [],
      "stateMutability": "nonpayable",
      "type": "function"
    },
    {
      "inputs": [],
      "name": "resume",
      "outputs": [],
      "stateMutability": "nonpayable",
      "type": "function"
    },
    {
      "inputs": [],
      "name": "root",
      "outputs": [
        {
          "internalType": "bytes32",
          "name": "",
          "type": "bytes32"
        }
      ],
      "stateMutability": "view",
      "type": "function"
    },
    {
      "inputs": [],
      "name": "sIlvContract",
      "outputs": [
        {
          "internalType": "address",
          "name": "",
          "type": "address"
        }
      ],
      "stateMutability": "view",
      "type": "function"
    },
    {
      "inputs": [],
      "name": "saleEnd",
      "outputs": [
        {
          "internalType": "uint32",
          "name": "",
          "type": "uint32"
        }
      ],
      "stateMutability": "view",
      "type": "function"
    },
    {
      "inputs": [],
      "name": "saleStart",
      "outputs": [
        {
          "internalType": "uint32",
          "name": "",
          "type": "uint32"
        }
      ],
      "stateMutability": "view",
      "type": "function"
    },
    {
      "inputs": [],
      "name": "seqDuration",
      "outputs": [
        {
          "internalType": "uint32",
          "name": "",
          "type": "uint32"
        }
      ],
      "stateMutability": "view",
      "type": "function"
    },
    {
      "inputs": [],
      "name": "seqOffset",
      "outputs": [
        {
          "internalType": "uint32",
          "name": "",
          "type": "uint32"
        }
      ],
      "stateMutability": "view",
      "type": "function"
    },
    {
      "inputs": [
        {
          "internalType": "address payable",
          "name": "_beneficiary",
          "type": "address"
        }
      ],
      "name": "setBeneficiary",
      "outputs": [],
      "stateMutability": "nonpayable",
      "type": "function"
    },
    {
      "inputs": [
        {
          "internalType": "bytes32",
          "name": "_root",
          "type": "bytes32"
        }
      ],
      "name": "setInputDataRoot",
      "outputs": [],
      "stateMutability": "nonpayable",
      "type": "function"
    },
    {
      "inputs": [
        {
          "internalType": "uint256",
          "name": "",
          "type": "uint256"
        }
      ],
      "name": "startPrices",
      "outputs": [
        {
          "internalType": "uint96",
          "name": "",
          "type": "uint96"
        }
      ],
      "stateMutability": "view",
      "type": "function"
    },
    {
      "inputs": [],
      "name": "targetNftContract",
      "outputs": [
        {
          "internalType": "address",
          "name": "",
          "type": "address"
        }
      ],
      "stateMutability": "view",
      "type": "function"
    },
    {
      "inputs": [],
      "name": "timeFlowQuantum",
      "outputs": [
        {
          "internalType": "uint32",
          "name": "",
          "type": "uint32"
        }
      ],
      "stateMutability": "view",
      "type": "function"
    },
    {
      "inputs": [
        {
          "internalType": "uint32",
          "name": "sequenceId",
          "type": "uint32"
        },
        {
          "internalType": "uint16",
          "name": "tierId",
          "type": "uint16"
        },
        {
          "internalType": "uint32",
          "name": "t",
          "type": "uint32"
        }
      ],
      "name": "tokenPriceAt",
      "outputs": [
        {
          "internalType": "uint256",
          "name": "",
          "type": "uint256"
        }
      ],
      "stateMutability": "view",
      "type": "function"
    },
    {
      "inputs": [
        {
          "internalType": "uint32",
          "name": "sequenceId",
          "type": "uint32"
        },
        {
          "internalType": "uint16",
          "name": "tierId",
          "type": "uint16"
        }
      ],
      "name": "tokenPriceNow",
      "outputs": [
        {
          "internalType": "uint256",
          "name": "",
          "type": "uint256"
        }
      ],
      "stateMutability": "view",
      "type": "function"
    },
    {
      "inputs": [
        {
          "internalType": "uint256",
          "name": "_mask",
          "type": "uint256"
        }
      ],
      "name": "updateFeatures",
      "outputs": [],
      "stateMutability": "nonpayable",
      "type": "function"
    },
    {
      "inputs": [
        {
          "internalType": "address",
          "name": "operator",
          "type": "address"
        },
        {
          "internalType": "uint256",
          "name": "role",
          "type": "uint256"
        }
      ],
      "name": "updateRole",
      "outputs": [],
      "stateMutability": "nonpayable",
      "type": "function"
    },
    {
      "inputs": [
        {
          "internalType": "address",
          "name": "newImplementation",
          "type": "address"
        }
      ],
      "name": "upgradeTo",
      "outputs": [],
      "stateMutability": "nonpayable",
      "type": "function"
    },
    {
      "inputs": [
        {
          "internalType": "address",
          "name": "newImplementation",
          "type": "address"
        },
        {
          "internalType": "bytes",
          "name": "data",
          "type": "bytes"
        }
      ],
      "name": "upgradeToAndCall",
      "outputs": [],
      "stateMutability": "payable",
      "type": "function"
    },
    {
      "inputs": [
        {
          "internalType": "address",
          "name": "",
          "type": "address"
        }
      ],
      "name": "userRoles",
      "outputs": [
        {
          "internalType": "uint256",
          "name": "",
          "type": "uint256"
        }
      ],
      "stateMutability": "view",
      "type": "function"
    },
    {
      "inputs": [
        {
          "internalType": "bool",
          "name": "_ethOnly",
          "type": "bool"
        }
      ],
      "name": "withdraw",
      "outputs": [],
      "stateMutability": "nonpayable",
      "type": "function"
    },
    {
      "inputs": [
        {
          "internalType": "address payable",
          "name": "_to",
          "type": "address"
        },
        {
          "internalType": "bool",
          "name": "_ethOnly",
          "type": "bool"
        }
      ],
      "name": "withdrawTo",
      "outputs": [],
      "stateMutability": "nonpayable",
      "type": "function"
    }
  ],
  "transactionHash": "0x70fbce5e62bba09febc21204c18073dd477ecf3f0232e0b1aa792cd9a4a37b87",
  "args": [],
  "solcInputHash": "9fc37ebe1cb0197c3f2697d18d30513b",
  "bytecode": "0x60a06040523060805234801561001457600080fd5b5060805161394061004560003960008181610ef801528181610f3801528181610fc1015261100101526139406000f3fe6080604052600436106102e45760003560e01c806388a5dbd911610190578063b7f97da1116100dc578063e023fd4211610095578063ebf0c7171161006f578063ebf0c717146108b8578063f822d5aa146108ce578063fad70eed146108ee578063fcc2c0781461090e57600080fd5b8063e023fd421461086e578063e60999ab1461088e578063e8898893146108a157600080fd5b8063b7f97da1146107ca578063c10b9358146107dd578063c241de2814610802578063c688d69314610819578063d5bb7f6714610839578063dd3f87741461085957600080fd5b8063aaf10f4211610149578063ae5b102e11610123578063ae5b102e1461075a578063ae60bda41461077a578063ae682e2e14610792578063b56e0351146107aa57600080fd5b8063aaf10f4214610708578063ab0bcc411461071d578063abd87bf31461073a57600080fd5b806388a5dbd9146106405780638c503b7a1461067857806396ebd9261461068d5780639e1672c1146106a4578063a6eb9331146106c8578063a810a54c146106e857600080fd5b80633659cfe61161024f57806355bc14121161020857806374d5e100116101e257806374d5e100146105c75780637f953252146105f45780638456cb591461061457806384fe75111461062957600080fd5b806355bc1412146105675780636f8a751314610587578063725f3626146105a757600080fd5b80633659cfe6146104ac57806338af3eed146104cc5780634f1ef286146104ec5780635228f141146104ff578063544b42aa14610523578063559b0e2d1461054757600080fd5b806322f3e2d4116102a157806322f3e2d4146103d2578063243feb99146103f75780632630c12f146104175780632b5214161461044f5780632d17f8bc146104715780632e55d0f21461048857600080fd5b8063046f7da2146102e95780630526679c146103005780630eb633f61461033e5780631c31f710146103605780632071a9f41461038057806322eb9363146103ae575b600080fd5b3480156102f557600080fd5b506102fe61092e565b005b34801561030c57600080fd5b50609b5461032490600160e01b900463ffffffff1681565b60405163ffffffff90911681526020015b60405180910390f35b34801561034a57600080fd5b50610353610ab1565b6040516103359190612d3c565b34801561036c57600080fd5b506102fe61037b366004612d9e565b610b3b565b34801561038c57600080fd5b506103a061039b366004612dbb565b610baf565b604051908152602001610335565b3480156103ba57600080fd5b50609b5461032490600160401b900463ffffffff1681565b3480156103de57600080fd5b506103e7610d3e565b6040519015158152602001610335565b34801561040357600080fd5b506102fe610412366004612de7565b610df9565b34801561042357600080fd5b50609954610437906001600160a01b031681565b6040516001600160a01b039091168152602001610335565b34801561045b57600080fd5b50306000908152606560205260409020546103a0565b34801561047d57600080fd5b506103246208000081565b34801561049457600080fd5b50609b5461032490600160c01b900463ffffffff1681565b3480156104b857600080fd5b506102fe6104c7366004612d9e565b610eed565b3480156104d857600080fd5b50609d54610437906001600160a01b031681565b6102fe6104fa366004612e98565b610fb6565b34801561050b57600080fd5b50609b5461032490600160801b900463ffffffff1681565b34801561052f57600080fd5b50609b5461032490600160601b900463ffffffff1681565b34801561055357600080fd5b50609854610437906001600160a01b031681565b34801561057357600080fd5b506103a0610582366004612f6b565b611070565b34801561059357600080fd5b506102fe6105a2366004612f9e565b611088565b3480156105b357600080fd5b506103e76105c2366004612f9e565b6110ed565b3480156105d357600080fd5b506103a06105e2366004612d9e565b60656020526000908152604090205481565b34801561060057600080fd5b50609754610437906001600160a01b031681565b34801561062057600080fd5b506102fe611106565b34801561063557600080fd5b506103246201000081565b34801561064c57600080fd5b5061066061065b366004612f9e565b6111e5565b6040516001600160601b039091168152602001610335565b34801561068457600080fd5b50610324611222565b34801561069957600080fd5b506103246210000081565b3480156106b057600080fd5b50609b5461032490600160a01b900463ffffffff1681565b3480156106d457600080fd5b506103e76106e3366004613057565b611240565b3480156106f457600080fd5b506102fe610703366004613134565b6112ff565b34801561071457600080fd5b50610437611309565b34801561072957600080fd5b50609b546103249063ffffffff1681565b34801561074657600080fd5b506103a0610755366004613151565b611313565b34801561076657600080fd5b506102fe610775366004613194565b61153c565b34801561078657600080fd5b506103a0600160fe1b81565b34801561079e57600080fd5b506103a0600160ff1b81565b3480156107b657600080fd5b506102fe6107c53660046131c0565b6115ef565b6102fe6107d8366004613057565b611877565b3480156107e957600080fd5b50609b5461032490640100000000900463ffffffff1681565b34801561080e57600080fd5b506103246204000081565b34801561082557600080fd5b506103e7610834366004613194565b611b38565b34801561084557600080fd5b506102fe610854366004612f9e565b611b5a565b34801561086557600080fd5b50610324600181565b34801561087a57600080fd5b506102fe6108893660046132cd565b611b64565b34801561089a57600080fd5b5042610324565b3480156108ad57600080fd5b506103246202000081565b3480156108c457600080fd5b506103a0609a5481565b3480156108da57600080fd5b506103a06108e9366004613318565b61203a565b3480156108fa57600080fd5b506102fe61090936600461334d565b612065565b34801561091a57600080fd5b506103e7610929366004612f9e565b6122a8565b61093a620100006122a8565b61095f5760405162461bcd60e51b815260040161095690613386565b60405180910390fd5b609b54600160c01b900463ffffffff166109ad5760405162461bcd60e51b815260206004820152600f60248201526e616c72656164792072756e6e696e6760881b6044820152606401610956565b609b5463ffffffff164263ffffffff161115610a4357609b5463ffffffff808216600160c01b90920416106109f157609b54600160c01b900463ffffffff166109fb565b609b5463ffffffff165b610a0590426133c3565b609b8054601c90610a24908490600160e01b900463ffffffff166133e8565b92506101000a81548163ffffffff021916908363ffffffff1602179055505b609b546040805163ffffffff600160c01b8404811682524281166020830152600160e01b909304909216828201525133917f2a8a87b3774227ffbda591ffc4019d65e8f0849df2bacb612e441d8c29b9d5c9919081900360600190a2609b805463ffffffff60c01b19169055565b6060609c805480602002602001604051908101604052809291908181526020018280548015610b3157602002820191906000526020600020906000905b82829054906101000a90046001600160601b03166001600160601b0316815260200190600c0190602082600b01049283019260010382029150808411610aee5790505b5050505050905090565b610b47621000006122a8565b610b635760405162461bcd60e51b815260040161095690613386565b609d80546001600160a01b0319166001600160a01b03831690811790915560405133907fe72eaf6addaa195f3c83095031dd08f3a96808dcf047babed1fe4e4f69d6c62290600090a350565b600080610bbc8484613426565b604080516101008101825266050638410593e7815266043993dba7736160208201526603dfcf9e07c3a9918101919091526603b5c2efd98f1560608201526603a168f88ae22460808201526603976600cd677460a08201526603926ee41a35e260c082015266038ff5e95c94da60e08201529086901c915066038d7ea4c6800060005b60088160ff16108015610c525750600086115b8015610c5e5750600187115b15610d3057610c6d878761343a565b9550610c7a600288613426565b9650868610610cc857828160ff1660088110610c9857610c9861344e565b602002015166ffffffffffffff168266ffffffffffffff1685610cbb9190613464565b610cc59190613426565b93505b610cd3876002613464565b8610610d1e57828160ff1660088110610cee57610cee61344e565b602002015166ffffffffffffff168266ffffffffffffff1685610d119190613464565b610d1b9190613426565b93505b80610d2881613483565b915050610c3f565b5091925050505b9392505050565b609b54600090600160c01b900463ffffffff16158015610d715750610d61611222565b609b5463ffffffff918216911611155b8015610d995750609b54640100000000900463ffffffff16610d91611222565b63ffffffff16105b8015610db35750609b54600160401b900463ffffffff1615155b8015610dcd5750609b54600160601b900463ffffffff1615155b8015610de75750609b54600160801b900463ffffffff1615155b8015610df45750609c5415155b905090565b610e05620800006122a8565b610e215760405162461bcd60e51b815260040161095690613386565b6098546001600160a01b0384811691161415610e745760405162461bcd60e51b81526020600482015260126024820152711cd25315881858d8d95cdcc819195b9a595960721b6044820152606401610956565b60405163a9059cbb60e01b81526001600160a01b0383811660048301526024820183905284169063a9059cbb906044016020604051808303816000875af1158015610ec3573d6000803e3d6000fd5b505050506040513d601f19601f82011682018060405250810190610ee791906134a3565b50505050565b306001600160a01b037f0000000000000000000000000000000000000000000000000000000000000000161415610f365760405162461bcd60e51b8152600401610956906134c0565b7f00000000000000000000000000000000000000000000000000000000000000006001600160a01b0316610f686122b4565b6001600160a01b031614610f8e5760405162461bcd60e51b81526004016109569061350c565b610f97816122e2565b60408051600080825260208201909252610fb39183919061230b565b50565b306001600160a01b037f0000000000000000000000000000000000000000000000000000000000000000161415610fff5760405162461bcd60e51b8152600401610956906134c0565b7f00000000000000000000000000000000000000000000000000000000000000006001600160a01b03166110316122b4565b6001600160a01b0316146110575760405162461bcd60e51b81526004016109569061350c565b611060826122e2565b61106c8282600161230b565b5050565b600061107f8383610755611222565b90505b92915050565b611094620200006122a8565b6110b05760405162461bcd60e51b815260040161095690613386565b609a81905560405181815233907f714dceb37ab5c7fb26ab805d3dc0423f5d90c3dac9f6702a2ea1402ea847851c9060200160405180910390a250565b3060009081526065602052604081205482168214611082565b611112620100006122a8565b61112e5760405162461bcd60e51b815260040161095690613386565b609b54600160c01b900463ffffffff161561117c5760405162461bcd60e51b815260206004820152600e60248201526d185b1c9958591e481c185d5cd95960921b6044820152606401610956565b42609b805463ffffffff92909216600160c01b0263ffffffff60c01b19909216919091179055337f5f7c71b306332d2a09dcbaa1ce4113161af8894b85086956ada57b31506c116d6111cb4290565b60405163ffffffff909116815260200160405180910390a2565b609c81815481106111f557600080fd5b9060005260206000209060029182820401919006600c02915054906101000a90046001600160601b031681565b609b54600090600160e01b900463ffffffff1642610df491906133c3565b81516020808401516040808601516060870151608088015160a089015160c08a015185516001600160e01b031960e09a8b1b8116828b01529790991b90961660248901526001600160f81b031960f894851b811660288a01526001600160f01b031960f094851b811660298b015292841b8316602b8a0152931b909216602d8701529290921b909116602e84015280518084036010018152603090930190528151910120609a54600091906112f790849083612456565b949350505050565b610fb33382612065565b6000610df46122b4565b609b54600090819061133290600160a01b900463ffffffff1686613558565b609b54611345919063ffffffff166133e8565b609b5490915060009061136590600160801b900463ffffffff16836133e8565b609b5490915063ffffffff8086169116118015906113965750609b5463ffffffff6401000000009091048116908516105b6113d15760405162461bcd60e51b815260206004820152600c60248201526b696e76616c69642074696d6560a01b6044820152606401610956565b8363ffffffff168263ffffffff16111580156113f857508063ffffffff168463ffffffff16105b6114375760405162461bcd60e51b815260206004820152601060248201526f696e76616c69642073657175656e636560801b6044820152606401610956565b609c5461ffff86161061147b5760405162461bcd60e51b815260206004820152600c60248201526b34b73b30b634b2103a34b2b960a11b6044820152606401610956565b61148582856133c3565b609b549094506114a290600160601b900463ffffffff1685613584565b609b549094506114bf90600160601b900463ffffffff1685613558565b9350611532609c8661ffff16815481106114db576114db61344e565b9060005260206000209060029182820401919006600c029054906101000a90046001600160601b03166001600160601b0316609b60089054906101000a900463ffffffff1663ffffffff168663ffffffff16610baf565b9695505050505050565b611549600160ff1b6122a8565b6115655760405162461bcd60e51b815260040161095690613386565b6001600160a01b03821660009081526065602052604090205461158a9033908361203a565b6001600160a01b0383166000818152606560205260409081902083905551909133917f5a10526456f5116c0b7b80582c217d666243fd51b6a2d92c8011e601c2462e5f916115e391869190918252602082015260400190565b60405180910390a35050565b6115fb620400006122a8565b6116175760405162461bcd60e51b815260040161095690613386565b63ffffffff878116146116b957609b8054640100000000600160e01b031663ffffffff808a169190911791829055600160c01b90910416156116b957609b546040805163ffffffff600160c01b909304831681524290921660208301526000828201525133917f2a8a87b3774227ffbda591ffc4019d65e8f0849df2bacb612e441d8c29b9d5c9919081900360600190a2609b805463ffffffff60c01b191690555b63ffffffff868116146116e757609b805467ffffffff00000000191664010000000063ffffffff8916021790555b63ffffffff8581161461171857609b80546bffffffff00000000000000001916600160401b63ffffffff8816021790555b63ffffffff8481161461174457609b805463ffffffff60601b1916600160601b63ffffffff8716021790555b63ffffffff8381161461177057609b805463ffffffff60801b1916600160801b63ffffffff8616021790555b63ffffffff8281161461179c57609b805463ffffffff60a01b1916600160a01b63ffffffff8516021790555b805160011415806117d957506001600160601b038016816000815181106117c5576117c561344e565b60200260200101516001600160601b031614155b156117f35780516117f190609c906020840190612c6f565b505b609b5460405133917fe03b2dd0888aa70a6f097b0598735e4b7e537c89a2a702e9d3c45d6bb158e9ea916118669163ffffffff808216926401000000008304821692600160401b8104831692600160601b8204811692600160801b8304821692600160a01b900490911690609c906135a7565b60405180910390a250505050505050565b61188160016110ed565b6118bd5760405162461bcd60e51b815260206004820152600d60248201526c1cd85b1948191a5cd8589b1959609a1b6044820152606401610956565b6118c5610d3e565b6119015760405162461bcd60e51b815260206004820152600d60248201526c696e6163746976652073616c6560981b6044820152606401610956565b609a5461193d5760405162461bcd60e51b815260206004820152600a602482015269656d7074792073616c6560b01b6044820152606401610956565b6119478282611240565b6119825760405162461bcd60e51b815260206004820152600c60248201526b1a5b9d985b1a59081c1b1bdd60a21b6044820152606401610956565b60008061199a84602001518560a0015160ff1661246c565b85519193509150600090426040516001600160e01b031960e093841b811660208301529190921b1660248201526bffffffffffffffffffffffff193360601b166028820152603c016040516020818303038152906040528051906020012060001c90506000604051806101400160405280600060ff168152602001876040015160ff168152602001876060015161ffff168152602001876080015161ffff1681526020018760a0015160ff1681526020018760c0015161ffff168152602001611a67848960a001516128c1565b60ff1681526020018760a001516003611a809190613691565b60ff16815260200160028860a0015160ff1610611ab85760018860a00151611aa891906136ba565b611ab3906003613691565b611abe565b8760a001515b60ff168152602001836001600160a01b03168152509050856020015163ffffffff16866000015163ffffffff16336001600160a01b03167fb955093cefb40aa4bd95afd8b00c1ede88a55473451211fc786c7de92d7e2947848888604051611b28939291906136dd565b60405180910390a4505050505050565b6001600160a01b0382166000908152606560205260408120548216821461107f565b610fb3308261153c565b600054610100900460ff16611b7f5760005460ff1615611b83565b303b155b611b9f5760405162461bcd60e51b8152600401610956906137b7565b600054610100900460ff16158015611bc1576000805461ffff19166101011790555b6001600160a01b038416611c175760405162461bcd60e51b815260206004820152601a60248201527f74617267657420636f6e7472616374206973206e6f74207365740000000000006044820152606401610956565b6001600160a01b038316611c6d5760405162461bcd60e51b815260206004820152601860248201527f73494c5620636f6e7472616374206973206e6f742073657400000000000000006044820152606401610956565b6001600160a01b038216611cc35760405162461bcd60e51b815260206004820152601960248201527f6f7261636c652061646472657373206973206e6f7420736574000000000000006044820152606401610956565b6040516301ffc9a760e01b81526380ac58cd60e01b60048201526001600160a01b038516906301ffc9a790602401602060405180830381865afa158015611d0e573d6000803e3d6000fd5b505050506040513d601f19601f82011682018060405250810190611d3291906134a3565b8015611da857506040516301ffc9a760e01b81526326e2e61760e01b60048201526001600160a01b038516906301ffc9a790602401602060405180830381865afa158015611d84573d6000803e3d6000fd5b505050506040513d601f19601f82011682018060405250810190611da891906134a3565b8015611e1e57506040516301ffc9a760e01b8152631b3453b360e01b60048201526001600160a01b038516906301ffc9a790602401602060405180830381865afa158015611dfa573d6000803e3d6000fd5b505050506040513d601f19601f82011682018060405250810190611e1e91906134a3565b611e635760405162461bcd60e51b8152602060048201526016602482015275756e657870656374656420746172676574207479706560501b6044820152606401610956565b826001600160a01b0316638a114e136040518163ffffffff1660e01b8152600401602060405180830381865afa158015611ea1573d6000803e3d6000fd5b505050506040513d601f19601f82011682018060405250810190611ec59190613805565b7fac3051b8d4f50966afb632468a4f61483ae6a953b74e387a01ef94316d6b7d6214611f295760405162461bcd60e51b81526020600482015260136024820152721d5b995e1c1958dd1959081cd2531588155251606a1b6044820152606401610956565b6040516301ffc9a760e01b8152634da8552760e11b60048201526001600160a01b038316906301ffc9a790602401602060405180830381865afa158015611f74573d6000803e3d6000fd5b505050506040513d601f19601f82011682018060405250810190611f9891906134a3565b611fdd5760405162461bcd60e51b8152602060048201526016602482015275756e6578706563746564206f7261636c65207479706560501b6044820152606401610956565b609780546001600160a01b038087166001600160a01b0319928316179092556098805486841690831617905560998054928516929091169190911790556120233361292b565b8015610ee7576000805461ff001916905550505050565b6001600160a01b03929092166000908152606560205260409020546000198084188216189216171690565b612071621000006122a8565b61208d5760405162461bcd60e51b815260040161095690613386565b6001600160a01b0382166120d75760405162461bcd60e51b81526020600482015260116024820152701c9958da5c1a595b9d081b9bdd081cd95d607a1b6044820152606401610956565b47600082612150576098546040516370a0823160e01b81523060048201526001600160a01b03909116906370a0823190602401602060405180830381865afa158015612127573d6000803e3d6000fd5b505050506040513d601f19601f8201168201806040525081019061214b9190613805565b612153565b60005b905060008211806121645750600081115b61219f5760405162461bcd60e51b815260206004820152600c60248201526b7a65726f2062616c616e636560a01b6044820152606401610956565b81156121dd576040516001600160a01b0385169083156108fc029084906000818181858888f193505050501580156121db573d6000803e3d6000fd5b505b801561225c5760985460405163a9059cbb60e01b81526001600160a01b038681166004830152602482018490529091169063a9059cbb906044016020604051808303816000875af1158015612236573d6000803e3d6000fd5b505050506040513d601f19601f8201168201806040525081019061225a91906134a3565b505b60408051838152602081018390526001600160a01b0386169133917f91fb9d98b786c57d74c099ccd2beca1739e9f6a81fb49001ca465c4b7591bbe2910160405180910390a350505050565b60006110823383611b38565b7f360894a13ba1a3210667c828492db98dca3e2076cc3735a920a3ca505d382bbc546001600160a01b031690565b6122ef600160fe1b6122a8565b610fb35760405162461bcd60e51b815260040161095690613386565b60006123156122b4565b9050612320846129ba565b60008351118061232d5750815b1561233e5761233c8484612a5f565b505b7f4910fdfa16fed3260ed0e7147f7cc6da11a60208b5b9406d12a635614ffd9143805460ff1661244f57805460ff191660011781556040516001600160a01b03831660248201526123bd90869060440160408051601f198184030181529190526020810180516001600160e01b0316631b2ce7f360e11b179052612a5f565b50805460ff191681556123ce6122b4565b6001600160a01b0316826001600160a01b0316146124465760405162461bcd60e51b815260206004820152602f60248201527f45524331393637557067726164653a207570677261646520627265616b73206660448201526e75727468657220757067726164657360881b6064820152608401610956565b61244f85612b4a565b5050505050565b6000826124638584612b8a565b14949350505050565b6000806124798484611070565b9150816124bb5760405162461bcd60e51b815260206004820152601060248201526f3ab739bab83837b93a32b2103a34b2b960811b6044820152606401610956565b346127e857609954604051634da8552760e11b8152600481018490526001600160a01b0390911690639b50aa4e906024016020604051808303816000875af115801561250b573d6000803e3d6000fd5b505050506040513d601f19601f8201168201806040525081019061252f9190613805565b90506103e8811161257b5760405162461bcd60e51b8152602060048201526016602482015275383934b1b29031b7b73b32b939b4b7b71032b93937b960511b6044820152606401610956565b6098546040516370a0823160e01b815233600482015282916001600160a01b0316906370a0823190602401602060405180830381865afa1580156125c3573d6000803e3d6000fd5b505050506040513d601f19601f820116820180604052508101906125e79190613805565b10156126355760405162461bcd60e51b815260206004820152601a60248201527f6e6f7420656e6f7567682066756e647320617661696c61626c650000000000006044820152606401610956565b609854604051636eb1769f60e11b815233600482015230602482015282916001600160a01b03169063dd62ed3e90604401602060405180830381865afa158015612683573d6000803e3d6000fd5b505050506040513d601f19601f820116820180604052508101906126a79190613805565b10156126f55760405162461bcd60e51b815260206004820152601960248201527f6e6f7420656e6f7567682066756e647320737570706c696564000000000000006044820152606401610956565b609854609d546001600160a01b03918216916323b872dd9133911661271a5730612727565b609d546001600160a01b03165b6040516001600160e01b031960e085901b1681526001600160a01b03928316600482015291166024820152604481018490526064016020604051808303816000875af115801561277b573d6000803e3d6000fd5b505050506040513d601f19601f8201168201806040525081019061279f91906134a3565b6127e35760405162461bcd60e51b8152602060048201526015602482015274115490cc8c081d1c985b9cd9995c8819985a5b1959605a1b6044820152606401610956565b6128ba565b813410156128295760405162461bcd60e51b815260206004820152600e60248201526d0dcdee840cadcdeeaced0408aa8960931b6044820152606401610956565b609d546001600160a01b03161561287657609d546040516001600160a01b039091169083156108fc029084906000818181858888f19350505050158015612874573d6000803e3d6000fd5b505b813411156128b657336108fc61288c843461381e565b6040518115909202916000818181858888f193505050501580156128b4573d6000803e3d6000fd5b505b5060005b9250929050565b60008160ff16600314156128ec576128da60038461343a565b6128e5906001613835565b9050611082565b8160ff166004141561290e5761290360038461343a565b6128e5906004613835565b8160ff166005141561292257506007611082565b50600092915050565b600054610100900460ff166129465760005460ff161561294a565b303b155b6129665760405162461bcd60e51b8152600401610956906137b7565b600054610100900460ff16158015612988576000805461ffff19166101011790555b6001600160a01b03821660009081526065602052604090206000199055801561106c576000805461ff00191690555050565b803b612a1e5760405162461bcd60e51b815260206004820152602d60248201527f455243313936373a206e657720696d706c656d656e746174696f6e206973206e60448201526c1bdd08184818dbdb9d1c9858dd609a1b6064820152608401610956565b7f360894a13ba1a3210667c828492db98dca3e2076cc3735a920a3ca505d382bbc80546001600160a01b0319166001600160a01b0392909216919091179055565b6060823b612abe5760405162461bcd60e51b815260206004820152602660248201527f416464726573733a2064656c65676174652063616c6c20746f206e6f6e2d636f6044820152651b9d1c9858dd60d21b6064820152608401610956565b600080846001600160a01b031684604051612ad99190613879565b600060405180830381855af49150503d8060008114612b14576040519150601f19603f3d011682016040523d82523d6000602084013e612b19565b606091505b5091509150612b4182826040518060600160405280602781526020016138e460279139612c36565b95945050505050565b612b53816129ba565b6040516001600160a01b038216907fbc7cd75a20ee27fd9adebab32041f755214dbc6bffa90cc0225b39da2e5c2d3b90600090a250565b600081815b8451811015612c2e576000858281518110612bac57612bac61344e565b60200260200101519050808311612bee576040805160208101859052908101829052606001604051602081830303815290604052805190602001209250612c1b565b60408051602081018390529081018490526060016040516020818303038152906040528051906020012092505b5080612c2681613895565b915050612b8f565b509392505050565b60608315612c45575081610d37565b825115612c555782518084602001fd5b8160405162461bcd60e51b815260040161095691906138b0565b82805482825590600052602060002090600101600290048101928215612d175791602002820160005b83821115612ce257835183826101000a8154816001600160601b0302191690836001600160601b031602179055509260200192600c01602081600b01049283019260010302612c98565b8015612d155782816101000a8154906001600160601b030219169055600c01602081600b01049283019260010302612ce2565b505b50612d23929150612d27565b5090565b5b80821115612d235760008155600101612d28565b6020808252825182820181905260009190848201906040850190845b81811015612d7d5783516001600160601b031683529284019291840191600101612d58565b50909695505050505050565b6001600160a01b0381168114610fb357600080fd5b600060208284031215612db057600080fd5b8135610d3781612d89565b600080600060608486031215612dd057600080fd5b505081359360208301359350604090920135919050565b600080600060608486031215612dfc57600080fd5b8335612e0781612d89565b92506020840135612e1781612d89565b929592945050506040919091013590565b634e487b7160e01b600052604160045260246000fd5b60405160e0810167ffffffffffffffff81118282101715612e6157612e61612e28565b60405290565b604051601f8201601f1916810167ffffffffffffffff81118282101715612e9057612e90612e28565b604052919050565b60008060408385031215612eab57600080fd5b8235612eb681612d89565b915060208381013567ffffffffffffffff80821115612ed457600080fd5b818601915086601f830112612ee857600080fd5b813581811115612efa57612efa612e28565b612f0c601f8201601f19168501612e67565b91508082528784828501011115612f2257600080fd5b80848401858401376000848284010152508093505050509250929050565b803563ffffffff81168114612f5457600080fd5b919050565b803561ffff81168114612f5457600080fd5b60008060408385031215612f7e57600080fd5b612f8783612f40565b9150612f9560208401612f59565b90509250929050565b600060208284031215612fb057600080fd5b5035919050565b803560ff81168114612f5457600080fd5b600067ffffffffffffffff821115612fe257612fe2612e28565b5060051b60200190565b600082601f830112612ffd57600080fd5b8135602061301261300d83612fc8565b612e67565b82815260059290921b8401810191818101908684111561303157600080fd5b8286015b8481101561304c5780358352918301918301613035565b509695505050505050565b60008082840361010081121561306c57600080fd5b60e081121561307a57600080fd5b50613083612e3e565b61308c84612f40565b815261309a60208501612f40565b60208201526130ab60408501612fb7565b60408201526130bc60608501612f59565b60608201526130cd60808501612f59565b60808201526130de60a08501612fb7565b60a08201526130ef60c08501612f59565b60c0820152915060e083013567ffffffffffffffff81111561311057600080fd5b61311c85828601612fec565b9150509250929050565b8015158114610fb357600080fd5b60006020828403121561314657600080fd5b8135610d3781613126565b60008060006060848603121561316657600080fd5b61316f84612f40565b925061317d60208501612f59565b915061318b60408501612f40565b90509250925092565b600080604083850312156131a757600080fd5b82356131b281612d89565b946020939093013593505050565b600080600080600080600060e0888a0312156131db57600080fd5b6131e488612f40565b965060206131f3818a01612f40565b965061320160408a01612f40565b955061320f60608a01612f40565b945061321d60808a01612f40565b935061322b60a08a01612f40565b925060c089013567ffffffffffffffff81111561324757600080fd5b8901601f81018b1361325857600080fd5b803561326661300d82612fc8565b81815260059190911b8201830190838101908d83111561328557600080fd5b928401925b828410156132b95783356001600160601b03811681146132aa5760008081fd5b8252928401929084019061328a565b809550505050505092959891949750929550565b6000806000606084860312156132e257600080fd5b83356132ed81612d89565b925060208401356132fd81612d89565b9150604084013561330d81612d89565b809150509250925092565b60008060006060848603121561332d57600080fd5b833561333881612d89565b95602085013595506040909401359392505050565b6000806040838503121561336057600080fd5b823561336b81612d89565b9150602083013561337b81613126565b809150509250929050565b6020808252600d908201526c1858d8d95cdcc819195b9a5959609a1b604082015260600190565b634e487b7160e01b600052601160045260246000fd5b600063ffffffff838116908316818110156133e0576133e06133ad565b039392505050565b600063ffffffff808316818516808303821115613407576134076133ad565b01949350505050565b634e487b7160e01b600052601260045260246000fd5b60008261343557613435613410565b500490565b60008261344957613449613410565b500690565b634e487b7160e01b600052603260045260246000fd5b600081600019048311821515161561347e5761347e6133ad565b500290565b600060ff821660ff81141561349a5761349a6133ad565b60010192915050565b6000602082840312156134b557600080fd5b8151610d3781613126565b6020808252602c908201527f46756e6374696f6e206d7573742062652063616c6c6564207468726f7567682060408201526b19195b1959d85d1958d85b1b60a21b606082015260800190565b6020808252602c908201527f46756e6374696f6e206d7573742062652063616c6c6564207468726f7567682060408201526b6163746976652070726f787960a01b606082015260800190565b600063ffffffff8083168185168183048111821515161561357b5761357b6133ad565b02949350505050565b600063ffffffff8084168061359b5761359b613410565b92169190910492915050565b600060e0820163ffffffff808b1684526020818b16818601526040828b16818701526060838b1681880152838a16608088015283891660a088015260e060c088015284935087546135fc818790815260200190565b60008a81526020812097509095505b6001828183011061361c5750613643565b87546001600160601b03808216895290851c1686880152909601959483019460020161360b565b95549581811015613662576001600160601b0387168652948401946001015b8181101561367d5786831c6001600160601b03168652948401945b50939e9d5050505050505050505050505050565b600060ff821660ff84168160ff04811182151516156136b2576136b26133ad565b029392505050565b600060ff821660ff8416808210156136d4576136d46133ad565b90039392505050565b835160ff168152610180810160208501516136fd602084018260ff169052565b506040850151613713604084018261ffff169052565b506060850151613729606084018261ffff169052565b50608085015161373e608084018260ff169052565b5060a085015161375460a084018261ffff169052565b5060c085015161376960c084018260ff169052565b5060e085015161377e60e084018260ff169052565b506101008581015160ff1690830152610120948501516001600160a01b0316948201949094526101408101929092526101609091015290565b6020808252602e908201527f496e697469616c697a61626c653a20636f6e747261637420697320616c72656160408201526d191e481a5b9a5d1a585b1a5e995960921b606082015260800190565b60006020828403121561381757600080fd5b5051919050565b600082821015613830576138306133ad565b500390565b60008219821115613848576138486133ad565b500190565b60005b83811015613868578181015183820152602001613850565b83811115610ee75750506000910152565b6000825161388b81846020870161384d565b9190910192915050565b60006000198214156138a9576138a96133ad565b5060010190565b60208152600082518060208401526138cf81604085016020870161384d565b601f01601f1916919091016040019291505056fe416464726573733a206c6f772d6c6576656c2064656c65676174652063616c6c206661696c6564a26469706673582212202d37a451d128ae041c205139b61533c7690e5bef99621e785519d7852769e76f64736f6c634300080b0033",
  "devdoc": {
    "author": "Basil Gorin",
    "details": "A note on randomness      Current implementation uses \"on-chain randomness\" to mint a land plot, which is calculated      as a keccak256 hash of some available parameters, like token ID, buyer address, and block      timestamp.      This can be relatively easy manipulated not only by miners, but even by clients wrapping      their transactions into the smart contract code when buying (calling a `buy` function).      It is considered normal and acceptable from the security point of view since the value      of such manipulation is low compared to the transaction cost.      This situation can change, however, in the future sales when more information on the game      is available, and when it becomes more clear how resource types and their positions      affect the game mechanics, and can be used to benefit players.A note on timestamps      Current implementation uses uint32 to represent unix timestamp, and time intervals,      it is not designed to be used after February 7, 2106, 06:28:15 GMT (unix time 0xFFFFFFFF)Merkle proof verification is based on OpenZeppelin implementation, see      https://docs.openzeppelin.com/contracts/4.x/api/utils#MerkleProof",
    "events": {
      "BeneficiaryUpdated(address,address)": {
        "details": "Fired in setBeneficiary",
        "params": {
          "_beneficiary": "new beneficiary address or zero-address",
          "_by": "an address which executed the operation"
        }
      },
      "Initialized(address,uint32,uint32,uint32,uint32,uint32,uint32,uint96[])": {
        "details": "Fired in initialize()",
        "params": {
          "_by": "an address which executed the operation",
          "_halvingTime": "price halving time (seconds), the time required for a token price      to reduce to the half of its initial value",
          "_saleEnd": "sale end unix timestamp, should match with the last sequence end time",
          "_saleStart": "sale start unix timestamp, and first sequence start time",
          "_seqDuration": "sequence duration (seconds), time limit of how long a token / sequence      can be available for sale",
          "_seqOffset": "sequence start offset (seconds), each sequence starts `_seqOffset`      later after the previous one",
          "_startPrices": "tier start prices (wei), starting token price for each (zero based) Tier ID",
          "_timeFlowQuantum": "time flow quantum (seconds), price update interval, used by      the price calculation algorithm to update prices"
        }
      },
      "Paused(address,uint32)": {
        "details": "Fired in pause()",
        "params": {
          "_by": "an address which executed the operation",
          "_pausedAt": "when the sale was paused (unix timestamp)"
        }
      },
      "PlotBought(address,uint32,uint32,(uint8,uint8,uint16,uint16,uint8,uint16,uint8,uint8,uint8,uint160),uint256,uint256)": {
        "details": "Fired in buy()",
        "params": {
          "_by": "an address which had bought the plot",
          "_eth": "ETH price of the lot (wei, non-zero)",
          "_plot": "on-chain plot metadata minted token, contains values copied from off-chain      plot metadata supplied externally, and generated values such as seed",
          "_sIlv": "sILV price of the lot (wei, zero if paid in ETH)",
          "_sequenceId": "Sequence ID, part of the off-chain plot metadata supplied externally",
          "_tokenId": "Token ID, part of the off-chain plot metadata supplied externally"
        }
      },
      "Resumed(address,uint32,uint32,uint32)": {
        "details": "Fired in resume(), optionally in initialize() (only if sale start is changed)",
        "params": {
          "_by": "an address which executed the operation",
          "_pauseDuration": "cumulative sale pause duration (seconds)",
          "_pausedAt": "when the sale was paused (unix timestamp)",
          "_resumedAt": "when the sale was resumed (unix timestamp)"
        }
      },
      "RootChanged(address,bytes32)": {
        "details": "Fired in setInputDataRoot()",
        "params": {
          "_by": "an address which executed the operation",
          "_root": "new Merkle root value"
        }
      },
      "Withdrawn(address,address,uint256,uint256)": {
        "details": "Fired in withdraw() and withdrawTo()",
        "params": {
          "_by": "an address which executed the operation",
          "_eth": "amount of ETH withdrawn (wei)",
          "_sIlv": "amount of sILV withdrawn (wei)",
          "_to": "an address which received the funds withdrawn"
        }
      }
    },
    "kind": "dev",
    "methods": {
      "buy((uint32,uint32,uint8,uint16,uint16,uint8,uint16),bytes32[])": {
        "details": "Merkle tree and proof can be constructed using the `web3-utils`, `merkletreejs`,      and `keccak256` npm packages:      1. Hash the plot data collection elements via `web3.utils.soliditySha3`, making sure         the packing order and types are exactly as defined in `PlotData` struct      2. Create a sorted MerkleTree (`merkletreejs`) from the hashed collection, use `keccak256`         from the `keccak256` npm package as a hashing function, do not hash leaves         (already hashed in step 1); Ex. MerkleTree options: {hashLeaves: false, sortPairs: true}      3. For any given plot data element the proof is constructed by hashing it (as in step 1),         and querying the MerkleTree for a proof, providing the hashed plot data element as a leafRequires FEATURE_SALE_ACTIVE feature to be enabledThrows if current time is outside the [saleStart, saleEnd + pauseDuration) bounds,      or if it is outside the sequence bounds (sequence lasts for `seqDuration`),      or if the tier specified is invalid (no starting price is defined for it)See also: https://docs.openzeppelin.com/contracts/4.x/api/utils#MerkleProof",
        "params": {
          "plotData": "plot data to buy",
          "proof": "Merkle proof for the plot data supplied"
        }
      },
      "evaluateBy(address,uint256,uint256)": {
        "details": "Calculated based on:      1) operator's own permission set read from userRoles[operator]      2) target permission set - what is already set on the target      3) desired permission set - what do we want set target toCorner cases:      1) Operator is super admin and its permission set is `FULL_PRIVILEGES_MASK`:        `desired` bitset is returned regardless of the `target` permission set value        (what operator sets is what they get)      2) Operator with no permissions (zero bitset):        `target` bitset is returned regardless of the `desired` value        (operator has no authority and cannot modify anything)Example:      Consider an operator with the permissions bitmask     00001111      is about to modify the target permission set          01010101      Operator wants to set that permission set to          00110011      Based on their role, an operator has the permissions      to update only lowest 4 bits on the target, meaning that      high 4 bits of the target set in this example is left      unchanged and low 4 bits get changed as desired:      01010011",
        "params": {
          "desired": "desired set of permissions operator would like to set",
          "operator": "address of the contract operator which is about to set the permissions",
          "target": "input set of permissions to operator is going to modify"
        },
        "returns": {
          "_0": "resulting set of permissions given operator will set"
        }
      },
      "features()": {
        "details": "Effectively reads userRoles role for the contract itself",
        "returns": {
          "_0": "256-bit bitmask of the features enabled"
        }
      },
      "getImplementation()": {
        "returns": {
          "_0": "the current implementation address"
        }
      },
      "getStartPrices()": {
        "details": "`startPrices` getter; the getters solidity creates for arrays      may be inconvenient to use if we need an entire array to be read",
        "returns": {
          "_0": "`startPrices` as is - as an array of uint96"
        }
      },
      "initialize(uint32,uint32,uint32,uint32,uint32,uint32,uint96[])": {
        "details": "Restricted access function to set up sale parameters, all at once,      or any subset of themTo skip parameter initialization, set it to `-1`,      that is a maximum value for unsigned integer of the corresponding type;      for `_startPrices` use a single array element with the `-1` value to skipExample: following initialization will update only `_seqDuration` and `_seqOffset`,      leaving the rest of the fields unchanged      initialize(          0xFFFFFFFF, // `_saleStart` unchanged          0xFFFFFFFF, // `_saleEnd` unchanged          0xFFFFFFFF, // `_halvingTime` unchanged          21600,      // `_seqDuration` updated to 6 hours          3600,       // `_seqOffset` updated to 1 hour          [0xFFFFFFFFFFFFFFFFFFFFFFFF] // `_startPrices` unchanged      )Sale start and end times should match with the number of sequences,      sequence duration and offset, if `n` is number of sequences, then      the following equation must hold:         `saleStart + (n - 1) * seqOffset + seqDuration = saleEnd`      Note: `n` is unknown to the sale contract and there is no way for it      to accurately validate other parameters of the equation aboveInput params are not validated; to get an idea if these params look valid,      refer to `isActive() `function, and it's logicRequires transaction sender to have `ROLE_SALE_MANAGER` role",
        "params": {
          "_halvingTime": "price halving time (seconds), the time required for a token price      to reduce to the half of its initial value",
          "_saleEnd": "sale end unix timestamp, should match with the last sequence end time",
          "_saleStart": "sale start unix timestamp, and first sequence start time",
          "_seqDuration": "sequence duration (seconds), time limit of how long a token / sequence      can be available for sale",
          "_seqOffset": "sequence start offset (seconds), each sequence starts `_seqOffset`      later after the previous one",
          "_startPrices": "tier start prices (wei), starting token price for each (zero based) Tier ID",
          "_timeFlowQuantum": "time flow quantum (seconds), price update interval, used by      the price calculation algorithm to update prices"
        }
      },
      "isActive()": {
        "details": "The sale is defined as active if all of the below conditions hold:      - sale start is now or in the past      - sale end is in the future      - halving time is not zero      - sequence duration is not zero      - there is at least one starting price set (zero price is valid)",
        "returns": {
          "_0": "true if sale is active, false otherwise"
        }
      },
      "isFeatureEnabled(uint256)": {
        "params": {
          "required": "set of features to check against"
        },
        "returns": {
          "_0": "true if all the features requested are enabled, false otherwise"
        }
      },
      "isOperatorInRole(address,uint256)": {
        "params": {
          "operator": "address of the user to check role for",
          "required": "set of permissions (role) to check"
        },
        "returns": {
          "_0": "true if all the permissions requested are enabled, false otherwise"
        }
      },
      "isPlotValid((uint32,uint32,uint8,uint16,uint16,uint8,uint16),bytes32[])": {
        "details": "Merkle tree and proof can be constructed using the `web3-utils`, `merkletreejs`,      and `keccak256` npm packages:      1. Hash the plot data collection elements via `web3.utils.soliditySha3`, making sure         the packing order and types are exactly as defined in `PlotData` struct      2. Create a sorted MerkleTree (`merkletreejs`) from the hashed collection, use `keccak256`         from the `keccak256` npm package as a hashing function, do not hash leaves         (already hashed in step 1); Ex. MerkleTree options: {hashLeaves: false, sortPairs: true}      3. For any given plot data element the proof is constructed by hashing it (as in step 1),         and querying the MerkleTree for a proof, providing the hashed plot data element as a leafSee also: https://docs.openzeppelin.com/contracts/4.x/api/utils#MerkleProof",
        "params": {
          "plotData": "plot data to verify",
          "proof": "Merkle proof for the plot data supplied"
        },
        "returns": {
          "_0": "true if plot is valid (belongs to registered collection), false otherwise"
        }
      },
      "isSenderInRole(uint256)": {
        "params": {
          "required": "set of permissions (role) to check against"
        },
        "returns": {
          "_0": "true if all the permissions requested are enabled, false otherwise"
        }
      },
      "now32()": {
        "details": "Testing time-dependent functionality may be difficult;      we override time in the helper test smart contract (mock)",
        "returns": {
          "_0": "`block.timestamp` in mainnet, custom values in testnets (if overridden)"
        }
      },
      "ownTime()": {
        "details": "If sale operates in a normal way, without emergency pausing involved, this      is always equal to the current time;      if sale is paused for some period of time, this duration is subtracted, the      sale \"slows down\", and behaves like if it had a delayed start",
        "returns": {
          "_0": "sale own time, current time adjusted by `pauseDuration`"
        }
      },
      "pause()": {
        "details": "Restricted access function to pause running sale in case of emergencyPausing/resuming doesn't affect sale \"own time\" and allows to resume the      sale process without \"loosing\" any items due to the time passed when pausedThe sale is resumed using `resume()` functionRequires transaction sender to have `ROLE_PAUSE_MANAGER` role"
      },
      "postConstruct(address,address,address)": {
        "details": "\"Constructor replacement\" for upgradeable, must be execute immediately after deployment      see https://docs.openzeppelin.com/upgrades-plugins/1.x/writing-upgradeable#initializersBinds the sale smart contract instance to      1) the target NFT smart contract address to be used to mint tokens (Land ERC721),      2) sILV (Escrowed Illuvium) contract address to be used as one of the payment options      3) Price Oracle contract address to be used to determine ETH/sILV price",
        "params": {
          "_nft": "target NFT smart contract address",
          "_oracle": "price oracle contract address",
          "_sIlv": "sILV (Escrowed Illuvium) contract address"
        }
      },
      "price(uint256,uint256,uint256)": {
        "details": "Calculates dutch auction price after the time of interest has passed since      the auction has startedThe price is assumed to drop exponentially, according to formula:      p(t) = p0 * 2^(-t/t0)      The price halves every t0 seconds passed from the start of the auctionCalculates with the precision p0 * 2^(-1/256), meaning the price updates      every t0 / 256 seconds      For example, if halving time is one hour, the price updates every 14 seconds",
        "params": {
          "p0": "initial price (wei)",
          "t": "elapsed time (seconds)",
          "t0": "price halving time (seconds)"
        },
        "returns": {
          "_0": "price after `t` seconds passed, `p = p0 * 2^(-t/t0)`"
        }
      },
      "rescueErc20(address,address,uint256)": {
        "details": "Restricted access function to rescue accidentally sent ERC20 tokens,      the tokens are rescued via `transfer` function call on the      contract address specified and with the parameters specified:      `_contract.transfer(_to, _value)`Doesn't allow to rescue sILV tokens, use withdraw/withdrawTo insteadRequires executor to have `ROLE_RESCUE_MANAGER` permission",
        "params": {
          "_contract": "smart contract address to execute `transfer` function on",
          "_to": "to address in `transfer(_to, _value)`",
          "_value": "value to transfer in `transfer(_to, _value)`"
        }
      },
      "resume()": {
        "details": "Restricted access function to resume previously paused salePausing/resuming doesn't affect sale \"own time\" and allows to resume the      sale process without \"loosing\" any items due to the time passed when pausedResuming the sale before it is scheduled to start doesn't have any effect      on the sale flow, and doesn't delay the sale startResuming the sale which was paused before the scheduled start delays the sale,      and moves scheduled sale start by the amount of time it was paused after the      original scheduled startThe sale is paused using `pause()` functionRequires transaction sender to have `ROLE_PAUSE_MANAGER` role"
      },
      "setBeneficiary(address)": {
        "details": "Restricted access function to update the sale beneficiary address, the address      can be set, updated, or \"unset\" (deleted, set to zero)Setting the address to non-zero value effectively activates funds withdrawal      mechanism via the push patternSetting the address to zero value effectively deactivates funds withdrawal      mechanism via the push pattern (pull mechanism can be used instead)"
      },
      "setInputDataRoot(bytes32)": {
        "details": "Requires executor to have `ROLE_DATA_MANAGER` permission",
        "params": {
          "_root": "Merkle tree root for the input plot data collection"
        }
      },
      "tokenPriceAt(uint32,uint16,uint32)": {
        "details": "Throws if `t` is outside the [saleStart, saleEnd) bounds,      or if it is outside the sequence bounds (sequence lasts for `seqDuration`),      or if the tier specified is invalid (no starting price is defined for it)",
        "params": {
          "sequenceId": "ID of the sequence token is sold in",
          "t": "unix timestamp of interest, time to evaluate the price at (own time)",
          "tierId": "ID of the tier token belongs to (defines token rarity)"
        },
        "returns": {
          "_0": "price of the token specified at some unix timestamp `t` (own time)"
        }
      },
      "tokenPriceNow(uint32,uint16)": {
        "details": "Adjusts current time for the sale pause duration `pauseDuration`, using      own time `ownTime()`Throws if `now` is outside the [saleStart, saleEnd + pauseDuration) bounds,      or if it is outside the sequence bounds (sequence lasts for `seqDuration`),      or if the tier specified is invalid (no starting price is defined for it)",
        "params": {
          "sequenceId": "ID of the sequence token is sold in",
          "tierId": "ID of the tier token belongs to (defines token rarity)"
        },
        "returns": {
          "_0": "current price of the token specified"
        }
      },
      "updateFeatures(uint256)": {
        "details": "Requires transaction sender to have `ROLE_ACCESS_MANAGER` permissionFunction is left for backward compatibility with older versions",
        "params": {
          "_mask": "bitmask representing a set of features to enable/disable"
        }
      },
      "updateRole(address,uint256)": {
        "details": "Setting role to zero is equivalent to removing an all permissionsSetting role to `FULL_PRIVILEGES_MASK` is equivalent to      copying senders' permissions (role) to the userRequires transaction sender to have `ROLE_ACCESS_MANAGER` permission",
        "params": {
          "operator": "address of a user to alter permissions for or zero      to alter global features of the smart contract",
          "role": "bitmask representing a set of permissions to      enable/disable for a user specified"
        }
      },
      "upgradeTo(address)": {
        "details": "Upgrade the implementation of the proxy to `newImplementation`. Calls {_authorizeUpgrade}. Emits an {Upgraded} event."
      },
      "upgradeToAndCall(address,bytes)": {
        "details": "Upgrade the implementation of the proxy to `newImplementation`, and subsequently execute the function call encoded in `data`. Calls {_authorizeUpgrade}. Emits an {Upgraded} event."
      },
      "withdraw(bool)": {
        "details": "Restricted access function to withdraw funds on the contract balance,      sends funds back to transaction senderWithdraws both ETH and sILV balances if `_ethOnly` is set to false,      withdraws only ETH is `_ethOnly` is set to true",
        "params": {
          "_ethOnly": "a flag indicating whether to withdraw sILV or not"
        }
      },
      "withdrawTo(address,bool)": {
        "details": "Restricted access function to withdraw funds on the contract balance,      sends funds to the address specifiedWithdraws both ETH and sILV balances if `_ethOnly` is set to false,      withdraws only ETH is `_ethOnly` is set to true",
        "params": {
          "_ethOnly": "a flag indicating whether to withdraw sILV or not",
          "_to": "an address to send funds to"
        }
      }
    },
    "stateVariables": {
      "FEATURE_SALE_ACTIVE": {
        "details": "Feature FEATURE_SALE_ACTIVE must be enabled in order for      `buy()` function to be able to succeed"
      },
      "ROLE_DATA_MANAGER": {
        "details": "Role ROLE_DATA_MANAGER allows setting the Merkle tree root via setInputDataRoot()"
      },
      "ROLE_PAUSE_MANAGER": {
        "details": "Role ROLE_PAUSE_MANAGER allows sale pausing/resuming via pause() / resume()"
      },
      "ROLE_RESCUE_MANAGER": {
        "details": "Role ROLE_RESCUE_MANAGER allows withdrawing any ERC20 tokens stored      on the smart contract balance"
      },
      "ROLE_SALE_MANAGER": {
        "details": "Role ROLE_SALE_MANAGER allows sale initialization via initialize()"
      },
      "ROLE_WITHDRAWAL_MANAGER": {
        "details": "Role ROLE_WITHDRAWAL_MANAGER allows to set the `beneficiary` address via      - setBeneficiary()Role ROLE_WITHDRAWAL_MANAGER allows pull withdrawals of funds:      - withdraw()      - withdrawTo()"
      },
      "beneficiary": {
        "details": "Sale beneficiary address, if set - used to send funds obtained from the sale;      If not set - contract accumulates the funds on its own deployed address"
      },
      "halvingTime": {
        "details": "Price halving time, the time required for a token price to reduce to the      half of its initial valueDefined in seconds"
      },
      "pauseDuration": {
        "details": "Cumulative sale pause duration, total amount of time sale stayed in a paused state      since the last time sale start time was set (see initialization, `initialize()`)Is increased only when sale is resumed back from the paused state, is not updated      when the sale is in a paused stateDefined in seconds"
      },
      "pausedAt": {
        "details": "Sale paused unix timestamp, the time when sale was paused,     non-zero value indicates that the sale is currently in a paused state     and is not operationalPausing a sale effectively pauses \"own time\" of the sale, this is achieved     by tracking cumulative sale pause duration (see `pauseDuration`) and taking it     into account when evaluating current sale time, prices, sequences on sale, etc.Erased (set to zero) when sale start time is modified (see initialization, `initialize()`)"
      },
      "sIlvContract": {
        "details": "Note: sILV ERC20 implementation never returns \"false\" on transfers,      it throws instead; we don't use any additional libraries like SafeERC20      to transfer sILV therefore"
      },
      "saleEnd": {
        "details": "Sale end unix timestamp, this is the time when sale deactivates,      and tokens of the last sequence become unavailableThe sale is active before the end (exclusive)"
      },
      "saleStart": {
        "details": "Sale start unix timestamp, scheduled sale start, the time when the sale      is scheduled to start, this is the time when sale activates,      the time when the first sequence sale starts, that is      when tokens of the first sequence become available on saleThe sale is active after the start (inclusive)"
      },
      "seqDuration": {
        "details": "Sequence duration, time limit of how long a token / sequence can be available      for sale, first sequence stops selling at `saleStart + seqDuration`, second      sequence stops selling at `saleStart + seqOffset + seqDuration`, and so onDefined in seconds"
      },
      "seqOffset": {
        "details": "Sequence start offset, first sequence starts selling at `saleStart`,      second sequence starts at `saleStart + seqOffset`, third at      `saleStart + 2 * seqOffset` and so on at `saleStart + n * seqOffset`,      where `n` is zero-based sequence IDDefined in seconds"
      },
      "startPrices": {
        "details": "Tier start prices, starting token price for each (zero based) Tier ID,      defined in ETH, can be converted into sILV via Uniswap/Sushiswap price oracle,      sILV price is defined to be equal to ILV price"
      },
      "timeFlowQuantum": {
        "details": "Time flow quantum, price update interval, used by the price calculation algorithm,      the time is rounded down to be multiple of quantum when performing price calculations;      setting this value to one effectively disables its effect;Defined in seconds"
      }
    },
    "title": "Land Sale",
    "version": 1
  },
  "userdoc": {
    "kind": "user",
    "methods": {
      "FEATURE_SALE_ACTIVE()": {
        "notice": "Enables the sale, buying tokens public functionNote: sale could be activated/deactivated by either sale manager, or      data manager, since these roles control sale params, and items on sale;      However both sale and data managers require some advanced knowledge about      the use of the functions they trigger, while switching the \"sale active\"      flag is very simple and can be done much more easier"
      },
      "ROLE_ACCESS_MANAGER()": {
        "notice": "Access manager is responsible for assigning the roles to users,      enabling/disabling global features of the smart contractAccess manager can add, remove and update user roles,      remove and update global features"
      },
      "ROLE_DATA_MANAGER()": {
        "notice": "Data manager is responsible for supplying the valid input plot data collection      Merkle root which then can be used to mint tokens, meaning effectively,      that data manager may act as a minter on the target NFT contract"
      },
      "ROLE_PAUSE_MANAGER()": {
        "notice": "Pause manager is responsible for:      - sale pausing (pausing/resuming the sale in case of emergency)"
      },
      "ROLE_RESCUE_MANAGER()": {
        "notice": "People do mistake and may send ERC20 tokens by mistake; since      NFT smart contract is not designed to accept and hold any ERC20 tokens,      it allows the rescue manager to \"rescue\" such lost tokensRescue manager is responsible for \"rescuing\" ERC20 tokens accidentally      sent to the smart contract, except the sILV which is a payment token      and can be withdrawn by the withdrawal manager only"
      },
      "ROLE_SALE_MANAGER()": {
        "notice": "Sale manager is responsible for:      - sale initialization (setting up sale timing/pricing parameters)"
      },
      "ROLE_UPGRADE_MANAGER()": {
        "notice": "Upgrade manager is responsible for smart contract upgrades,      see https://docs.openzeppelin.com/contracts/4.x/api/proxy#UUPSUpgradeable      see https://docs.openzeppelin.com/contracts/4.x/upgradeable"
      },
      "ROLE_WITHDRAWAL_MANAGER()": {
        "notice": "Withdrawal manager is responsible for withdrawing funds obtained in sale      from the sale smart contract via pull/push mechanisms:      1) Pull: no pre-setup is required, withdrawal manager executes the         withdraw function periodically to withdraw funds      2) Push: withdrawal manager sets the `beneficiary` address which is used         by the smart contract to send funds to when users purchase land NFTs"
      },
      "buy((uint32,uint32,uint8,uint16,uint16,uint8,uint16),bytes32[])": {
        "notice": "Sells a plot of land (Land ERC721 token) from the sale to executor.      Executor must supply the metadata for the land plot and a Merkle tree proof      for the metadata supplied.Metadata for all the plots is stored off-chain and is publicly available      to buy plots and to generate Merkle proofs"
      },
      "evaluateBy(address,uint256,uint256)": {
        "notice": "Determines the permission bitmask an operator can set on the      target permission setUsed to calculate the permission bitmask to be set when requested     in `updateRole` and `updateFeatures` functions"
      },
      "features()": {
        "notice": "Retrieves globally set of features enabled"
      },
      "getImplementation()": {
        "notice": "Returns an address of the implementation smart contract,      see ERC1967Upgrade._getImplementation()"
      },
      "isActive()": {
        "notice": "Verifies if sale is in the active state, meaning that it is properly      initialized with the sale start/end times, sequence params, etc., and      that the current time is within the sale start/end boundsDoesn't check if the plot data Merkle root `root` is set or not;      active sale state doesn't guarantee that an item can be actually bought"
      },
      "isFeatureEnabled(uint256)": {
        "notice": "Checks if requested set of features is enabled globally on the contract"
      },
      "isOperatorInRole(address,uint256)": {
        "notice": "Checks if operator has all the permissions (role) required"
      },
      "isPlotValid((uint32,uint32,uint8,uint16,uint16,uint8,uint16),bytes32[])": {
        "notice": "Verifies the validity of a plot supplied (namely, if it's registered for the sale)      based on the Merkle root of the plot data collection (already defined on the contract),      and the Merkle proof supplied to validate the particular plot data"
      },
      "isSenderInRole(uint256)": {
        "notice": "Checks if transaction sender `msg.sender` has all the permissions required"
      },
      "ownTime()": {
        "notice": "Current time adjusted to count for the total duration sale was on pause"
      },
      "priceOracle()": {
        "notice": "Land Sale Price Oracle is used to convert the token prices from USD      to ETH or sILV (ILV)"
      },
      "root()": {
        "notice": "Input data root, Merkle tree root for the collection of plot data elements,      available on saleMerkle root effectively \"compresses\" the (potentially) huge collection of elements      and allows to store it in a single 256-bits storage slot on-chain"
      },
      "sIlvContract()": {
        "notice": "Deployed sILV (Escrowed Illuvium) ERC20 token address,      accepted as a payment option alongside ETH"
      },
      "setInputDataRoot(bytes32)": {
        "notice": "Restricted access function to update input data root (Merkle tree root),       and to define, effectively, the tokens to be created by this smart contract"
      },
      "targetNftContract()": {
        "notice": "Deployed LandERC721 token address to mint tokens of      (when they are bought via the sale)"
      },
      "tokenPriceAt(uint32,uint16,uint32)": {
        "notice": "Determines the dutch auction price value for a token in a given      sequence `sequenceId`, given tier `tierId`, at a given time `t` (own time)"
      },
      "tokenPriceNow(uint32,uint16)": {
        "notice": "Determines the dutch auction price value for a token in a given      sequence `sequenceId`, given tier `tierId`, now (block.timestamp)"
      },
      "updateFeatures(uint256)": {
        "notice": "Updates set of the globally enabled features (`features`),      taking into account sender's permissions"
      },
      "updateRole(address,uint256)": {
        "notice": "Updates set of permissions (role) for a given user,      taking into account sender's permissions."
      },
      "userRoles(address)": {
        "notice": "Privileged addresses with defined roles/permissionsIn the context of ERC20/ERC721 tokens these can be permissions to      allow minting or burning tokens, transferring on behalf and so on"
      }
    },
    "notice": "Enables the Land NFT sale via dutch auction mechanismThe proposed volume of land is approximately 100,000 plots, split amongst the 7 regions.      The volume is released over a series of staggered sales with the first sale featuring      about 20,000 land plots (tokens).Land plots are sold in sequences, each sequence groups tokens which are sold in parallel.      Sequences start selling one by one with the configurable time interval between their start.      A sequence is available for a sale for a fixed (configurable) amount of time, meaning they      can overlap (tokens from several sequences are available on sale simultaneously) if this      amount of time is bigger than interval between sequences start.The sale operates in a configurable time interval which should be aligned with the      total number of sequences, their duration, and start interval.      Sale smart contract has no idea of the total number of sequences and doesn't validate      if these timings are correctly aligned.Starting prices of the plots are defined by the plot tier in ETH, and are configurable      within the sale contract per tier ID.      Token price declines over time exponentially, price halving time is configurable.      The exponential price decline simulates the price drop requirement which may be formulates      something like \"the price drops by 'x' % every 'y' minutes\".      For example, if x = 2, and y = 1, \"the price drops by 2% every minute\", the halving      time is around 34 minutes.Sale accepts ETH and sILV as a payment currency, sILV price is supplied by on-chain      price oracle (sILV price is assumed to be equal to ILV price)The data required to mint a plot includes (see `PlotData` struct):      - token ID, defines a unique ID for the land plot used as ERC721 token ID      - sequence ID, defines the time frame when the plot is available for sale      - region ID (1 - 7), determines which tileset to use in game,      - coordinates (x, y) on the overall world map, indicating which grid position the land sits in,      - tier ID (1 - 5), the rarity of the land, tier is used to create the list of sites,      - size (w, h), defines an internal coordinate system within a plot,Since minting a plot requires at least 32 bytes of data and due to a significant      amount of plots to be minted (about 100,000), pre-storing this data on-chain      is not a viable option (2,000,000,000 of gas only to pay for the storage).      Instead, we represent the whole land plot data collection on sale as a Merkle tree      structure and store the root of the Merkle tree on-chain.      To buy a particular plot, the buyer must know the entire collection and be able to      generate and present the Merkle proof for this particular plot.The input data is a collection of `PlotData` structures; the Merkle tree is built out      from this collection, and the tree root is stored on the contract by the data manager.      When buying a plot, the buyer also specifies the Merkle proof for a plot data to mint.",
    "version": 1
  },
  "storageLayout": {
    "storage": [
      {
        "astId": 460,
        "contract": "contracts/protocol/LandSale.sol:LandSale",
        "label": "_initialized",
        "offset": 0,
        "slot": "0",
        "type": "t_bool"
      },
      {
        "astId": 463,
        "contract": "contracts/protocol/LandSale.sol:LandSale",
        "label": "_initializing",
        "offset": 1,
        "slot": "0",
        "type": "t_bool"
      },
      {
        "astId": 442,
        "contract": "contracts/protocol/LandSale.sol:LandSale",
        "label": "__gap",
        "offset": 0,
        "slot": "1",
        "type": "t_array(t_uint256)50_storage"
      },
      {
        "astId": 637,
        "contract": "contracts/protocol/LandSale.sol:LandSale",
        "label": "__gap",
        "offset": 0,
        "slot": "51",
        "type": "t_array(t_uint256)50_storage"
      },
      {
        "astId": 14197,
        "contract": "contracts/protocol/LandSale.sol:LandSale",
        "label": "userRoles",
        "offset": 0,
        "slot": "101",
        "type": "t_mapping(t_address,t_uint256)"
      },
      {
        "astId": 14202,
        "contract": "contracts/protocol/LandSale.sol:LandSale",
        "label": "__gap",
        "offset": 0,
        "slot": "102",
        "type": "t_array(t_uint256)49_storage"
      },
      {
        "astId": 10478,
        "contract": "contracts/protocol/LandSale.sol:LandSale",
        "label": "targetNftContract",
        "offset": 0,
        "slot": "151",
        "type": "t_address"
      },
      {
        "astId": 10481,
        "contract": "contracts/protocol/LandSale.sol:LandSale",
        "label": "sIlvContract",
        "offset": 0,
        "slot": "152",
        "type": "t_address"
      },
      {
        "astId": 10484,
        "contract": "contracts/protocol/LandSale.sol:LandSale",
        "label": "priceOracle",
        "offset": 0,
        "slot": "153",
        "type": "t_address"
      },
      {
        "astId": 10487,
        "contract": "contracts/protocol/LandSale.sol:LandSale",
        "label": "root",
        "offset": 0,
        "slot": "154",
        "type": "t_bytes32"
      },
      {
        "astId": 10490,
        "contract": "contracts/protocol/LandSale.sol:LandSale",
        "label": "saleStart",
        "offset": 0,
        "slot": "155",
        "type": "t_uint32"
      },
      {
        "astId": 10493,
        "contract": "contracts/protocol/LandSale.sol:LandSale",
        "label": "saleEnd",
        "offset": 4,
        "slot": "155",
        "type": "t_uint32"
      },
      {
        "astId": 10496,
        "contract": "contracts/protocol/LandSale.sol:LandSale",
        "label": "halvingTime",
        "offset": 8,
        "slot": "155",
        "type": "t_uint32"
      },
      {
        "astId": 10499,
        "contract": "contracts/protocol/LandSale.sol:LandSale",
        "label": "timeFlowQuantum",
        "offset": 12,
        "slot": "155",
        "type": "t_uint32"
      },
      {
        "astId": 10502,
        "contract": "contracts/protocol/LandSale.sol:LandSale",
        "label": "seqDuration",
        "offset": 16,
        "slot": "155",
        "type": "t_uint32"
      },
      {
        "astId": 10505,
        "contract": "contracts/protocol/LandSale.sol:LandSale",
        "label": "seqOffset",
        "offset": 20,
        "slot": "155",
        "type": "t_uint32"
      },
      {
        "astId": 10508,
        "contract": "contracts/protocol/LandSale.sol:LandSale",
        "label": "pausedAt",
        "offset": 24,
        "slot": "155",
        "type": "t_uint32"
      },
      {
        "astId": 10511,
        "contract": "contracts/protocol/LandSale.sol:LandSale",
        "label": "pauseDuration",
        "offset": 28,
        "slot": "155",
        "type": "t_uint32"
      },
      {
        "astId": 10515,
        "contract": "contracts/protocol/LandSale.sol:LandSale",
        "label": "startPrices",
        "offset": 0,
        "slot": "156",
        "type": "t_array(t_uint96)dyn_storage"
      },
      {
        "astId": 10518,
        "contract": "contracts/protocol/LandSale.sol:LandSale",
        "label": "beneficiary",
        "offset": 0,
        "slot": "157",
        "type": "t_address_payable"
      }
    ],
    "types": {
      "t_address": {
        "encoding": "inplace",
        "label": "address",
        "numberOfBytes": "20"
      },
      "t_address_payable": {
        "encoding": "inplace",
        "label": "address payable",
        "numberOfBytes": "20"
      },
      "t_array(t_uint256)49_storage": {
        "base": "t_uint256",
        "encoding": "inplace",
        "label": "uint256[49]",
        "numberOfBytes": "1568"
      },
      "t_array(t_uint256)50_storage": {
        "base": "t_uint256",
        "encoding": "inplace",
        "label": "uint256[50]",
        "numberOfBytes": "1600"
      },
      "t_array(t_uint96)dyn_storage": {
        "base": "t_uint96",
        "encoding": "dynamic_array",
        "label": "uint96[]",
        "numberOfBytes": "32"
      },
      "t_bool": {
        "encoding": "inplace",
        "label": "bool",
        "numberOfBytes": "1"
      },
      "t_bytes32": {
        "encoding": "inplace",
        "label": "bytes32",
        "numberOfBytes": "32"
      },
      "t_mapping(t_address,t_uint256)": {
        "encoding": "mapping",
        "key": "t_address",
        "label": "mapping(address => uint256)",
        "numberOfBytes": "32",
        "value": "t_uint256"
      },
      "t_uint256": {
        "encoding": "inplace",
        "label": "uint256",
        "numberOfBytes": "32"
      },
      "t_uint32": {
        "encoding": "inplace",
        "label": "uint32",
        "numberOfBytes": "4"
      },
      "t_uint96": {
        "encoding": "inplace",
        "label": "uint96",
        "numberOfBytes": "12"
      }
    }
  }
}