{
  "address": "0x2822e8Ab0361fFC191F75fC9AFf7b0CF425f45C6",
  "abi": [
    {
      "inputs": [],
      "name": "ethOut",
      "outputs": [
        {
          "internalType": "uint256",
          "name": "",
          "type": "uint256"
        }
      ],
      "stateMutability": "view",
      "type": "function"
    },
    {
      "inputs": [
        {
          "internalType": "uint256",
          "name": "_ethOut",
          "type": "uint256"
        }
      ],
      "name": "ethToIlv",
      "outputs": [
        {
          "internalType": "uint256",
          "name": "_ilvIn",
          "type": "uint256"
        }
      ],
      "stateMutability": "view",
      "type": "function"
    },
    {
      "inputs": [],
      "name": "ethToIlvOverride",
      "outputs": [
        {
          "internalType": "uint256",
          "name": "",
          "type": "uint256"
        }
      ],
      "stateMutability": "view",
      "type": "function"
    },
    {
      "inputs": [],
      "name": "ilvIn",
      "outputs": [
        {
          "internalType": "uint256",
          "name": "",
          "type": "uint256"
        }
      ],
      "stateMutability": "view",
      "type": "function"
    },
    {
      "inputs": [
        {
          "internalType": "uint256",
          "name": "_ethToIlvOverride",
          "type": "uint256"
        }
      ],
      "name": "setEthToIlvOverride",
      "outputs": [],
      "stateMutability": "nonpayable",
      "type": "function"
    },
    {
      "inputs": [
        {
          "internalType": "uint256",
          "name": "_ethOut",
          "type": "uint256"
        },
        {
          "internalType": "uint256",
          "name": "_ilvIn",
          "type": "uint256"
        }
      ],
      "name": "setRate",
      "outputs": [],
      "stateMutability": "nonpayable",
      "type": "function"
    },
    {
      "inputs": [
        {
          "internalType": "bytes4",
          "name": "interfaceID",
          "type": "bytes4"
        }
      ],
      "name": "supportsInterface",
      "outputs": [
        {
          "internalType": "bool",
          "name": "",
          "type": "bool"
        }
      ],
      "stateMutability": "view",
      "type": "function"
    }
  ],
  "transactionHash": "0x7968496f0e47981cc53596defb0dfd67b77f1e5f3c32ce7d0ba2990bc8efa9af",
  "args": [],
  "solcInputHash": "37c7bc22665b4f0b96c81c73ae70818e",
  "bytecode": "0x60806040526001600055600460015560001960025534801561002057600080fd5b5061024c806100306000396000f3fe608060405234801561001057600080fd5b506004361061007d5760003560e01c80637b64853b1161005b5780637b64853b146100e9578063854d277e146101005780639b50aa4e14610109578063c8a439821461011c57600080fd5b806301ffc9a7146100825780632e75e514146100bb57806346df2ccb146100d0575b600080fd5b6100a661009036600461015b565b6001600160e01b031916634da8552760e11b1490565b60405190151581526020015b60405180910390f35b6100ce6100c936600461018c565b600255565b005b6100ce6100de3660046101a5565b600091909155600155565b6100f260015481565b6040519081526020016100b2565b6100f260025481565b6100f261011736600461018c565b610125565b6100f260005481565b6000600019600254106101515760005460015461014290846101c7565b61014c91906101f4565b610155565b6002545b92915050565b60006020828403121561016d57600080fd5b81356001600160e01b03198116811461018557600080fd5b9392505050565b60006020828403121561019e57600080fd5b5035919050565b600080604083850312156101b857600080fd5b50508035926020909101359150565b60008160001904831182151516156101ef57634e487b7160e01b600052601160045260246000fd5b500290565b60008261021157634e487b7160e01b600052601260045260246000fd5b50049056fea26469706673582212207a7ac1021c8de4be01b28d1604a636d1f65008bf70821410ff744f60061b0e3764736f6c634300080b0033",
  "devdoc": {
    "author": "Basil Gorin",
    "kind": "dev",
    "methods": {
      "ethToIlv(uint256)": {
        "details": "Implementation must guarantee not to return zero, absurdly small      or big values, it must guarantee the price is up to date with some      reasonable update interval threshold",
        "params": {
          "ethOut": "amount of ETH sale contract is expecting to get"
        },
        "returns": {
          "_ilvIn": "amount of sILV sale contract should accept instead"
        }
      },
      "supportsInterface(bytes4)": {
        "details": "Interface identification is specified in ERC-165.      This function uses less than 30,000 gas.",
        "params": {
          "interfaceID": "The interface identifier, as specified in ERC-165"
        },
        "returns": {
          "_0": "`true` if the contract implements `interfaceID` and      `interfaceID` is not 0xffffffff, `false` otherwise"
        }
      }
    },
    "title": "Land Sale Oracle Implementation",
    "version": 1
  },
  "userdoc": {
    "kind": "user",
    "methods": {
      "ethToIlv(uint256)": {
        "notice": "Powers the ETH/ILV Land token price conversion, used when      selling the land for sILV to determine how much sILV to accept      instead of the nominated ETH priceNote that sILV price is considered to be equal to ILV price"
      },
      "supportsInterface(bytes4)": {
        "notice": "Query if a contract implements an interface"
      }
    },
    "notice": "Supports the Land Sale with the ETH/ILV conversion required",
    "version": 1
  },
  "storageLayout": {
    "storage": [
      {
        "astId": 10037,
        "contract": "contracts/mocks/LandSaleOracleMock.sol:LandSaleOracleMock",
        "label": "ethOut",
        "offset": 0,
        "slot": "0",
        "type": "t_uint256"
      },
      {
        "astId": 10040,
        "contract": "contracts/mocks/LandSaleOracleMock.sol:LandSaleOracleMock",
        "label": "ilvIn",
        "offset": 0,
        "slot": "1",
        "type": "t_uint256"
      },
      {
        "astId": 10047,
        "contract": "contracts/mocks/LandSaleOracleMock.sol:LandSaleOracleMock",
        "label": "ethToIlvOverride",
        "offset": 0,
        "slot": "2",
        "type": "t_uint256"
      }
    ],
    "types": {
      "t_uint256": {
        "encoding": "inplace",
        "label": "uint256",
        "numberOfBytes": "32"
      }
    }
  }
}