{
  "address": "0xdfc0Ceb90fc2b68873aC2F1b11E05A2EcC2facDD",
  "abi": [
    {
      "inputs": [
        {
          "internalType": "uint256",
          "name": "x",
          "type": "uint256"
        }
      ],
      "name": "PRBMathUD60x18__FromUintOverflow",
      "type": "error"
    },
    {
      "inputs": [
        {
          "internalType": "uint256",
          "name": "prod1",
          "type": "uint256"
        }
      ],
      "name": "PRBMath__MulDivFixedPointOverflow",
      "type": "error"
    },
    {
      "inputs": [
        {
          "internalType": "uint256",
          "name": "prod1",
          "type": "uint256"
        },
        {
          "internalType": "uint256",
          "name": "denominator",
          "type": "uint256"
        }
      ],
      "name": "PRBMath__MulDivOverflow",
      "type": "error"
    },
    {
      "inputs": [
        {
          "internalType": "uint256",
          "name": "_tokenId",
          "type": "uint256"
        }
      ],
      "name": "tokenURI",
      "outputs": [
        {
          "internalType": "string",
          "name": "",
          "type": "string"
        }
      ],
      "stateMutability": "view",
      "type": "function"
    }
  ],
  "transactionHash": "0x00f861b078f6657c7344a6b4ff4b3bedf8e7b31af45ca08321755ff985818463",
  "args": [],
  "solcInputHash": "a0850beaeb59876798d87f6fb83217b2",
  "bytecode": "0x608060405234801561001057600080fd5b50615cd9806100206000396000f3fe608060405234801561001057600080fd5b506004361061002b5760003560e01c8063c87b56dd14610030575b600080fd5b61004361003e3660046126f6565b610059565b6040516100509190612999565b60405180910390f35b60405163206ad07760e11b81526004810182905260609060009033906340d5a0ee9060240160006040518083038186803b15801561009657600080fd5b505afa1580156100aa573d6000803e3d6000fd5b505050506040513d6000823e601f3d908101601f191682016040526100d291908101906125fc565b9050610100816000015182602001518360400151846060015185608001518660a00151876101000151610107565b9392505050565b6060600061011789898989610198565b905060006101236101f8565b9050600061013b610136878a8a89610218565b610363565b9050610169838383604051602001610155939291906127f6565b604051602081830303815290604052610363565b60405160200161017991906128bd565b6040516020818303038152906040529350505050979650505050505050565b60606101a68260ff166104c9565b6101b28660ff166104c9565b6101bf8661ffff166104c9565b6101cc8661ffff166104c9565b6040516020016101df9493929190612902565b6040516020818303038152906040529050949350505050565b6060604051806060016040528060308152602001614c4d60309139905090565b6060600061022684866105cf565b60408051600b808252610180820190925291925060009190816020015b606081526020019060019003908161024357905050905060005b600b81101561034e57604080518082019091526016815275232aaa2aa922afa127a0a9222fa1a7a72a20a4a722a960511b6020909101527f3065a2bdc2e59b9652d66372c4bbb02fd02ed2843a45fc5cacea675188b6b6018382600b81106102c7576102c7612bc2565b6020020151805190602001201415610307576102e587878a88610762565b8282815181106102f7576102f7612bc2565b602002602001018190525061033c565b8281600b811061031957610319612bc2565b602002015182828151811061033057610330612bc2565b60200260200101819052505b8061034681612b46565b91505061025d565b50610358816108fe565b979650505050505050565b606081516000141561038357505060408051602081019091526000815290565b60006040518060600160405280604081526020016142ee60409139905060006003845160026103b29190612a67565b6103bc9190612a7f565b6103c7906004612abd565b905060006103d6826020612a67565b67ffffffffffffffff8111156103ee576103ee612bd8565b6040519080825280601f01601f191660200182016040528015610418576020820181803683370190505b509050818152600183018586518101602084015b81831015610484576003830192508251603f8160121c168501518253600182019150603f81600c1c168501518253600182019150603f8160061c168501518253600182019150603f811685015182535060010161042c565b60038951066001811461049e57600281146104af576104bb565b613d3d60f01b6001198301526104bb565b603d60f81b6000198301525b509398975050505050505050565b6060816104ed5750506040805180820190915260018152600360fc1b602082015290565b8160005b8115610517578061050181612b46565b91506105109050600a83612a7f565b91506104f1565b60008167ffffffffffffffff81111561053257610532612bd8565b6040519080825280601f01601f19166020018201604052801561055c576020820181803683370190505b5090505b84156105c757610571600183612aff565b915061057e600a86612b82565b610589906030612a67565b60f81b81838151811061059e5761059e612bc2565b60200101906001600160f81b031916908160001a9053506105c0600a86612a7f565b9450610560565b949350505050565b6105d76124c9565b604080516101a08101909152600d61016082019081526c3c737667206865696768743d2760981b61018083015281526020810161062c610618866003612a93565b610623906006612a4a565b61ffff166104c9565b81526040805180820182526009815268272077696474683d2760b81b60208281019190915283015201610663610623866003612a93565b81526020016040518060600160405280603681526020016130ab6036913981526020016040518060800160405280605a8152602001614b72605a913981526020016106b08460ff166104c9565b81526020016040518060400160405280601281526020017114939039ba3937b5b29e93b737b73293979f60711b81525081526020016040518060800160405280605581526020016143a660559139815260200160405180604001604052806016815260200175232aaa2aa922afa127a0a9222fa1a7a72a20a4a722a960511b8152508152602001604051806040016040528060068152602001651e17b9bb339f60d11b81525081525090505b92915050565b60606000610770858761098b565b60408051608d8082526111c0820190925291925060009190816020015b606081526020019060019003908161078d57905050905060005b608d81101561034e5760408051808201909152601081526f14d2551154d7d413d4d2551253d3915160821b6020909101527f64f2783640c4865674ec13c6e235087b6aaeda1ce8c00ab5be599bc1410e90338382608d811061080b5761080b612bc2565b60200201518051906020012014156108485761082685611cd1565b82828151811061083857610838612bc2565b60200260200101819052506108ec565b6040805180820190915260088152674c414e444d41524b60c01b6020909101527f47d424edd137428e7e45f5bba6d747155b51e8d5b7ff1cef040004bc911aa54a8382608d811061089b5761089b612bc2565b60200201518051906020012014156108b7576108268787611ddd565b8281608d81106108c9576108c9612bc2565b60200201518282815181106108e0576108e0612bc2565b60200260200101819052505b806108f681612b46565b9150506107a7565b60608060005b8351811015610984578015610955578184828151811061092657610926612bc2565b602002602001015160405160200161093f92919061270f565b6040516020818303038152906040529150610972565b83818151811061096757610967612bc2565b602002602001015191505b8061097c81612b46565b915050610904565b5092915050565b6109936124f1565b60006109c86109a26003611ff9565b6109c26109af6002611ff9565b6109bc8861ffff16611ff9565b9061204b565b90612060565b905060006109df670de0b6b3a764000083046104c9565b6109fe6109f5670de0b6b3a764000085066104c9565b6000600261206c565b604051602001610a0f9291906127c6565b60408051601f19818403018152611200830190915260346111a083018181529193508291906158426111c084013981526020016040518060800160405280605d8152602001614b15605d913981526020016040518060a00160405280606a8152602001614065606a913981526020016040518060a00160405280606a815260200161593e606a913981526020016040518060800160405280605581526020016145286055913981526020016040518060600160405280602e8152602001615814602e913981526020016040518060800160405280605d8152602001613f25605d913981526020016040518060a00160405280607881526020016135876078913981526020016040518060c0016040528060828152602001612e7e6082913981526020016040518060a00160405280606a81526020016148cf606a913981526020016040518060600160405280602e8152602001614660602e913981526020016040518060800160405280605d8152602001613f25605d913981526020016040518060a0016040528060788152602001613ead6078913981526020016040518060a0016040528060788152602001613d9f6078913981526020016040518060a00160405280606a815260200161535e606a913981526020016040518060600160405280602e815260200161399c602e913981526020016040518060800160405280605d8152602001613f25605d913981526020016040518060a001604052806078815260200161432e6078913981526020016040518060a0016040528060788152602001613a1e6078913981526020016040518060800160405280604e8152602001613788604e913981526020016040518060600160405280602e81526020016157e6602e913981526020016040518060800160405280605d8152602001613f25605d913981526020016040518060a0016040528060788152602001615b186078913981526020016040518060a00160405280607881526020016156a26078913981526020016040518060a00160405280607881526020016142076078913981526020016040518060a00160405280607c8152602001613b8f607c913981526020016040518060c00160405280608b8152602001612f96608b913981526020016040518060a0016040528060788152602001614d076078913981526020016040518060a00160405280607b81526020016153c8607b913981526020016040518060a00160405280606f815260200161427f606f913981526020016040518060a0016040528060808152602001614df76080913981526020016040518060c0016040528060868152602001613ca16086913981526020016040518060c00160405280608681526020016152086086913981526020016040518060c0016040528060868152602001614f906086913981526020016040518060c00160405280608681526020016130e16086913981526020016040518060e0016040528060bf81526020016131bb60bf913981526020016040518060c0016040528060818152602001614bcc6081913981526020016040518060e0016040528060a18152602001614e7760a1913981526020016040518060800160405280605481526020016139ca6054913981526020016040518060c0016040528060908152602001614a856090913981526020016040518060800160405280605481526020016149396054913981526020016040518060c00160405280609081526020016140cf6090913981526020016040518060800160405280605481526020016131676054913981526020016040518060c0016040528060908152602001615a18609091398152602001604051806080016040528060548152602001613b3b6054913981526020016040518060c0016040528060968152602001612f0060969139815260200160405180608001604052806054815260200161528e6054913981526020016040518060c0016040528060968152602001613c0b6096913981526020016040518060a001604052806076815260200161468e6076913981526020016040518060c0016040528060968152602001613e176096913981526020016040518060a001604052806076815260200161468e6076913981526020016040518060c00160405280609681526020016133e36096913981526020016040518060a001604052806076815260200161468e6076913981526020016040518060c00160405280609681526020016134796096913981526020016040518060a001604052806076815260200161468e6076913981526020016040518060a001604052806067815260200161498d60679139815260200182836040516020016110c792919061273e565b60405160208183030381529060405281526020016040518060a00160405280606581526020016144c36065913981526020016040518060c00160405280609981526020016147be6099913981526020016040518060a00160405280607881526020016135ff6078913981526020016040518060800160405280605c8152602001612c55605c9139815260200160405180608001604052806042815260200161477c6042913981526020016040518060a0016040528060788152602001614f186078913981526020016040518060600160405280603f81526020016149f4603f913981526020016040518060a00160405280607c81526020016152e2607c913981526020016040518060800160405280605581526020016145286055913981526020016040518060c00160405280608f8152602001613677608f913981526020016040518060a001604052806078815260200161350f6078913981526020016040518060c00160405280608a8152602001613021608a913981526020016040518060800160405280605181526020016155e16051913981526020016040518060c00160405280608281526020016137066082913981526020016040518060800160405280605481526020016140116054913981526020016040518060a0016040528060708152602001615aa86070913981526020016040518060800160405280605581526020016145286055913981526020016040518060c00160405280608f8152602001615443608f913981526020016040518060a001604052806078815260200161576e6078913981526020016040518060c00160405280608a8152602001615557608a913981526020016040518060800160405280605181526020016155e16051913981526020016040518060a0016040528060788152602001612d8e6078913981526020016040518060800160405280605481526020016150166054913981526020016040518060a00160405280607081526020016159a86070913981526020016040518060800160405280605581526020016145286055913981526020016040518060c00160405280608f8152602001615179608f913981526020016040518060a001604052806078815260200161444b6078913981526020016040518060c00160405280608a8152602001615b90608a913981526020016040518060800160405280605181526020016155e16051913981526020016040518060a0016040528060788152602001612e0660789139815260200160405180608001604052806054815260200161460c6054913981526020016040518060a00160405280607081526020016156326070913981526020016040518060800160405280605581526020016145286055913981526020016040518060c00160405280608f8152602001613f82608f913981526020016040518060a0016040528060788152602001614d7f607891398152602001604051806080016040528060528152602001614a336052913981526020016040518060c0016040528060898152602001612d056089913981526020016040518060a00160405280607881526020016147046078913981526020016040518060a00160405280607881526020016142076078913981526020016040518060a0016040528060668152602001612bef6066913981526020016040518060a00160405280607081526020016133736070913981526020016040518060800160405280605581526020016145286055913981526020016040518060c00160405280608f815260200161457d608f913981526020016040518060a0016040528060788152602001613d276078913981526020016040518060c00160405280608a8152602001615c1a608a9139815260200160405180610100016040528060cc81526020016137d660cc913981526020016040518060a001604052806080815260200161506a6080913981526020016040518060a00160405280607081526020016138a26070913981526020016040518060800160405280605581526020016145286055913981526020016040518060c00160405280608f81526020016150ea608f913981526020016040518060a00160405280607881526020016148576078913981526020016040518060c00160405280608a8152602001613912608a913981526020016040518060800160405280605181526020016158766051913981526020016040518060a00160405280607b8152602001613ac0607b913981526020016040518060a00160405280607781526020016158c76077913981526020016040518060c00160405280608581526020016154d26085913981526020016040518060e0016040528060a8815260200161415f60a891398152602001604051806080016040528060548152602001612cb160549139815260200160405180608001604052806047815260200161327a6047913981526020016117d28660ff166104c9565b81526020016040518060600160405280602a8152602001613a96602a91398152602001611800600288612b61565b61ffff161561182b57604051806040016040528060048152602001632d31382560e01b815250611849565b604051806040016040528060048152602001632d31372560e01b8152505b815260408051808201825260058152642720793d2760d81b60208281019190915283015201611879600288612b61565b61ffff16156118a457604051806040016040528060048152602001632d31382560e01b8152506118c2565b604051806040016040528060048152602001632d31372560e01b8152505b81526040805180820182526009815268272077696474683d2760b81b602082810191909152830152016118f6600288612b61565b61ffff161561192357604051806040016040528060068152602001653131372e382560d01b815250611941565b604051806040016040528060048152602001633131372560e01b8152505b8152604080518082018252600a81526927206865696768743d2760b01b60208281019190915283015201611976600288612b61565b61ffff16156119a357604051806040016040528060068152602001653131372e382560d01b8152506119c3565b604051806040016040528060068152602001653131362e342560d01b8152505b8152602001604051806060016040528060388152602001614ccf6038913981526020016119f1600288612b61565b61ffff1615611a1d576040518060400160405280600581526020016431312e362560d81b815250611a3a565b6040518060400160405280600381526020016231312560e81b8152505b815260408051808201825260058152642720793d2760d81b60208281019190915283015201611a6a600288612b61565b61ffff1615611a96576040518060400160405280600581526020016431312e362560d81b815250611ab5565b6040518060400160405280600581526020016431312e322560d81b8152505b81526040805180820182526009815268272077696474683d2760b81b60208281019190915283015201611ae9600288612b61565b61ffff1615611b15576040518060400160405280600581526020016436332e302560d81b815250611b34565b6040518060400160405280600581526020016436332e362560d81b8152505b8152604080518082018252600a81526927206865696768743d2760b01b60208281019190915283015201611b69600288612b61565b61ffff1615611b95576040518060400160405280600581526020016436332e322560d81b815250611bb4565b6040518060400160405280600581526020016436332e382560d81b8152505b8152602001604051806080016040528060528152602001614c7d6052913981526020018283604051602001611bea92919061277a565b6040516020818303038152906040528152602001604051806040016040528060088152602001674c414e444d41524b60c01b81525081526020016040518060400160405280601081526020016f14d2551154d7d413d4d2551253d3915160821b81525081526020016040518060400160405280600e81526020016d1e17b39f1e17b39f1e17b9bb339f60911b81525081526020016040518060c00160405280608381526020016132c1608391398152602001611ca88660ff166104c9565b81526020016040518060600160405280602f8152602001613344602f9139905295945050505050565b60606000825167ffffffffffffffff811115611cef57611cef612bd8565b604051908082528060200260200182016040528015611d2257816020015b6060815260200190600190039081611d0d5790505b50905060005b8351811015611dd357611da3611d5a858381518110611d4957611d49612bc2565b60200260200101516020015161215a565b611d80868481518110611d6f57611d6f612bc2565b602002602001015160400151612167565b868481518110611d9257611d92612bc2565b602002602001015160000151612180565b828281518110611db557611db5612bc2565b60200260200101819052508080611dcb90612b46565b915050611d28565b50610100816108fe565b60606000611e12611dee6003611ff9565b6109c2611dfb6002611ff9565b6109bc611e0960028a612adc565b61ffff16611ff9565b90506000611e29670de0b6b3a764000083046104c9565b611e3f6109f5670de0b6b3a764000085066104c9565b604051602001611e509291906127c6565b60408051808303601f1901815260078084526101008401909252925060009190816020015b6060815260200190600190039081611e75579050509050604051806040016040528060088152602001673c73766720783d2760c01b81525081600081518110611ec057611ec0612bc2565b60200260200101819052508181600181518110611edf57611edf612bc2565b6020026020010181905250604051806040016040528060058152602001642720793d2760d81b81525081600281518110611f1b57611f1b612bc2565b60200260200101819052508181600381518110611f3a57611f3a612bc2565b602002602001018190525060405180608001604052806054815260200161571a6054913981600481518110611f7157611f71612bc2565b6020026020010181905250611f888560ff166104c9565b81600581518110611f9b57611f9b612bc2565b60200260200101819052506040518060400160405280600981526020016813979f1e17b9bb339f60b91b81525081600681518110611fdb57611fdb612bc2565b6020026020010181905250611fef816108fe565b9695505050505050565b60007812725dd1d243aba0e75fe645cc4873f9e65afe688c928e1f2182111561203d57604051633492ffd960e01b8152600481018390526024015b60405180910390fd5b50670de0b6b3a76400000290565b600061010083670de0b6b3a764000084612339565b60006101008383612407565b8251606090849061207d8486612a67565b1061208b5784915050610100565b60008367ffffffffffffffff8111156120a6576120a6612bd8565b6040519080825280601f01601f1916602001820160405280156120d0576020820181803683370190505b5090506000855b6120e18688612a67565b81101561214e578381815181106120fa576120fa612bc2565b602001015160f81c60f81b83838151811061211757612117612bc2565b60200101906001600160f81b031916908160001a9053508161213881612b46565b925050808061214690612b46565b9150506120d7565b50909695505050505050565b600061075c826003612a93565b60006006612176836003612a93565b61075c9190612adc565b604080516007808252610100820190925260609160009190816020015b606081526020019060019003908161219d579050509050604051806040016040528060088152602001673c73766720783d2760c01b815250816000815181106121e8576121e8612bc2565b60200260200101819052506122008561ffff166104c9565b8160018151811061221357612213612bc2565b6020026020010181905250604051806040016040528060058152602001642720793d2760d81b8152508160028151811061224f5761224f612bc2565b60200260200101819052506122678461ffff166104c9565b8160038151811061227a5761227a612bc2565b60200260200101819052506040518060800160405280605081526020016143fb60509139816004815181106122b1576122b1612bc2565b60200260200101819052506122c88360ff166104c9565b816005815181106122db576122db612bc2565b60200260200101819052506040518060400160405280600a8152602001691390179f1e17b9bb339f60b11b8152508160068151811061231c5761231c612bc2565b6020026020010181905250612330816108fe565b95945050505050565b6000808060001985870985870292508281108382030391505080600014156123745783828161236a5761236a612bac565b0492505050610100565b83811061239e57604051631dcf306360e21b81526004810182905260248101859052604401612034565b60008486880960026001871981018816978890046003810283188082028403028082028403028082028403028082028403028082028403029081029092039091026000889003889004909101858311909403939093029303949094049190911702949350505050565b60008080600019848609848602925082811083820303915050670de0b6b3a7640000811061244b5760405163698d9a0160e11b815260048101829052602401612034565b600080670de0b6b3a76400008688099150506706f05b59d3b1ffff8111826124855780670de0b6b3a764000085040194505050505061075c565b620400008285030493909111909103600160ee1b02919091177faccb18165bd6fe31ae1cf318dc5b51eee0e1ba569b88cd74c1773b91fac106690201905092915050565b604051806101600160405280600b905b60608152602001906001900390816124d95790505090565b604080516111a0810190915260608152608c602082016124d9565b600082601f83011261251d57600080fd5b8151602067ffffffffffffffff82111561253957612539612bd8565b612547818360051b01612a19565b8281528181019085830160608086028801850189101561256657600080fd5b6000805b878110156125c55782848c031215612580578182fd5b6125886129cc565b612591856125eb565b815261259e8886016125d4565b8882015260406125af8187016125d4565b908201528652948601949282019260010161256a565b50929998505050505050505050565b805161ffff811681146125e657600080fd5b919050565b805160ff811681146125e657600080fd5b60006020828403121561260e57600080fd5b815167ffffffffffffffff8082111561262657600080fd5b90830190610120828603121561263b57600080fd5b6126436129f5565b61264c836125eb565b815261265a602084016125d4565b602082015261266b604084016125d4565b604082015261267c606084016125eb565b606082015261268d608084016125d4565b608082015261269e60a084016125eb565b60a08201526126af60c084016125eb565b60c08201526126c060e084016125eb565b60e082015261010080840151838111156126d957600080fd5b6126e58882870161250c565b918301919091525095945050505050565b60006020828403121561270857600080fd5b5035919050565b60008351612721818460208801612b16565b835190830190612735818360208801612b16565b01949350505050565b60008351612750818460208801612b16565b600160fd1b908301908152835161276e816001840160208801612b16565b01600101949350505050565b6000835161278c818460208801612b16565b600160fd1b90830190815283516127aa816001840160208801612b16565b6214939f60e91b60019290910191820152600401949350505050565b600083516127d8818460208801612b16565b601760f91b908301908152835161276e816001840160208801612b16565b683d913730b6b2911d1160b91b8152835160009061281b816009850160208901612b16565b71111610113232b9b1b934b83a34b7b7111d1160711b600991840191820152845161284d81601b840160208901612b16565b6c1116101134b6b0b3b2911d101160991b601b92909101918201527f646174613a696d6167652f7376672b786d6c3b6261736536342c000000000000602882015283516128a1816042840160208801612b16565b61227d60f01b6042929091019182015260440195945050505050565b7f646174613a6170706c69636174696f6e2f6a736f6e3b6261736536342c2000008152600082516128f581601e850160208701612b16565b91909101601e0192915050565b6902630b732102a34b2b9160b51b81526000855161292781600a850160208a01612b16565b630405a40560e31b600a91840191820152855161294b81600e840160208a01612b16565b80820191505061016160f51b80600e8301528551612970816010850160208a01612b16565b6010920191820152835161298b816012840160208801612b16565b016012019695505050505050565b60208152600082518060208401526129b8816040850160208701612b16565b601f01601f19169190910160400192915050565b6040516060810167ffffffffffffffff811182821017156129ef576129ef612bd8565b60405290565b604051610120810167ffffffffffffffff811182821017156129ef576129ef612bd8565b604051601f8201601f1916810167ffffffffffffffff81118282101715612a4257612a42612bd8565b604052919050565b600061ffff80831681851680830382111561273557612735612b96565b60008219821115612a7a57612a7a612b96565b500190565b600082612a8e57612a8e612bac565b500490565b600061ffff80831681851681830481118215151615612ab457612ab4612b96565b02949350505050565b6000816000190483118215151615612ad757612ad7612b96565b500290565b600061ffff83811690831681811015612af757612af7612b96565b039392505050565b600082821015612b1157612b11612b96565b500390565b60005b83811015612b31578181015183820152602001612b19565b83811115612b40576000848401525b50505050565b6000600019821415612b5a57612b5a612b96565b5060010190565b600061ffff80841680612b7657612b76612bac565b92169190910692915050565b600082612b9157612b91612bac565b500690565b634e487b7160e01b600052601160045260246000fd5b634e487b7160e01b600052601260045260246000fd5b634e487b7160e01b600052603260045260246000fd5b634e487b7160e01b600052604160045260246000fdfe3c73746f70206f66667365743d27302e373334333735272073746f702d636f6c6f723d2723374637304432272f3e3c73746f70206f66667365743d2731272073746f702d636f6c6f723d2723383237384632272f3e3c2f6c696e6561724772616469656e743e3c7265637420783d27342e37322720793d27342e3539393938272077696474683d27342e3827206865696768743d27342e38272066696c6c3d2775726c28237061696e74315f6c696e6561725f323337315f35353836373729272f3e3c73746f702073746f702d636f6c6f722723353635363536272f3e3c73746f70206f66667365743d2731272f3e3c2f6c696e6561724772616469656e743e3c2f646566733e3c2f7376673e3c2f73796d626f6c3e3c7265637420783d27342e31322720793d2734272077696474683d273427206865696768743d2734272066696c6c3d277768697465272f3e3c7265637420783d27332e36322720793d27332e35272077696474683d273527206865696768743d273527207374726f6b653d27626c61636b27207374726f6b652d6f7061636974793d27302e31272f3e3c646566733e3c6c696e6561724772616469656e742069643d277061696e74305f6c696e6561725f323337315f353538363836272078313d2731312e3132272079313d2731272078323d27312e3132272079323d27313127206772616469656e74556e6974733d277573657253706163654f6e557365273e3c646566733e3c6c696e6561724772616469656e742069643d277061696e74305f6c696e6561725f323337315f353538363839272078313d2731312e3132272079313d2731272078323d27312e3132272079323d27313127206772616469656e74556e6974733d277573657253706163654f6e557365273e3c646566733e3c6c696e6561724772616469656e742069643d277061696e74305f6c696e6561725f313332305f313435383134272078313d2731312e3132272079313d2731272078323d272d302e383632303538272079323d27372e313138343527206772616469656e74556e6974733d277573657253706163654f6e557365273e3c6c696e6561724772616469656e742069643d27524f554e4445445f424f524445525f544945525f35272078313d2731303025272079313d2731362e3625272078323d2731303025272079323d273130302527206772616469656e74556e6974733d277573657253706163654f6e5573652720786d6c6e733d27687474703a2f2f7777772e77332e6f72672f323030302f737667273e3c73796d626f6c2069643d27534954455f545950455f36272077696474683d273627206865696768743d2736273e3c7376672077696474683d273627206865696768743d2736272076696577426f783d27302030203132203132272066696c6c3d276e6f6e652720786d6c6e733d27687474703a2f2f7777772e77332e6f72672f323030302f737667273e3c7265637420783d27342e31322720793d2734272077696474683d273427206865696768743d2734272066696c6c3d2775726c28237061696e74315f6c696e6561725f323337315f35353836383329272f3e3c7265637420783d27342e31322720793d2734272077696474683d273427206865696768743d2734272066696c6c3d277768697465272f3e27207374726f6b652d77696474683d27322720786d6c6e733d27687474703a2f2f7777772e77332e6f72672f323030302f737667273e3c73746f702073746f702d636f6c6f723d2723353335304141272f3e3c2f6c696e6561724772616469656e743e3c6c696e6561724772616469656e742069643d27424f4152445f424f54544f4d5f424f524445525f434f4c4f525f544945525f312720786d6c6e733d27687474703a2f2f7777772e77332e6f72672f323030302f737667273e3c73746f702073746f702d636f6c6f723d2723374444364632272f3e3c73746f70206f66667365743d2731272073746f702d636f6c6f723d2723363235454443272f3e3c2f6c696e6561724772616469656e743e3c73746f702073746f702d636f6c6f723d2723324332423637272f3e3c2f6c696e6561724772616469656e743e3c6c696e6561724772616469656e742069643d274752414449454e545f424f4152445f544945525f35272078313d2731303025272079313d2730272078323d2731303025272079323d273130302527206772616469656e74556e6974733d277573657253706163654f6e5573652720786d6c6e733d27687474703a2f2f7777772e77332e6f72672f323030302f737667273e3c2f646566733e3c726563742077696474683d273130302527206865696768743d2731303025272066696c6c3d2775726c28234752414449454e545f424f4152445f544945525f3c7265637420786d6c6e733d27687474703a2f2f7777772e77332e6f72672f323030302f7376672720783d27302e332720793d27302e33272077696474683d2739392e372527206865696768743d2739392e3725272066696c6c3d276e6f6e6527207374726f6b653d2775726c2823524f554e4445445f424f524445525f544945525f2927207374726f6b652d77696474683d2731272072783d27342e3525272072793d27342e3525272f3e3c2f7376673e3c6c696e6561724772616469656e742069643d277061696e74315f6c696e6561725f323337315f353538363935272078313d27382e3132272079313d2734272078323d27342e3132272079323d273827206772616469656e74556e6974733d277573657253706163654f6e557365273e3c6c696e6561724772616469656e742069643d27524f554e4445445f424f524445525f544945525f32272078313d2731303025272079313d2731362e3625272078323d2731303025272079323d273130302527206772616469656e74556e6974733d277573657253706163654f6e5573652720786d6c6e733d27687474703a2f2f7777772e77332e6f72672f323030302f737667273e3c6c696e6561724772616469656e742069643d27524f554e4445445f424f524445525f544945525f31272078313d2731303025272079313d2731362e3625272078323d2731303025272079323d273130302527206772616469656e74556e6974733d277573657253706163654f6e5573652720786d6c6e733d27687474703a2f2f7777772e77332e6f72672f323030302f737667273e3c7265637420783d27312e31322720793d2731272077696474683d27313027206865696768743d273130272066696c6c3d2775726c28237061696e74305f6c696e6561725f323337315f3535383638332927207374726f6b653d27776869746527207374726f6b652d6f7061636974793d27302e35272f3e3c7265637420783d27312e31322720793d2731272077696474683d27313027206865696768743d273130272066696c6c3d2775726c28237061696e74305f6c696e6561725f313332305f3134353831342927207374726f6b653d27776869746527207374726f6b652d6f7061636974793d27302e35272f3e3c7265637420783d27312e31322720793d2731272077696474683d27313227206865696768743d273132272066696c6c3d2775726c28237061696e74305f6c696e6561725f323337315f3535383637372927207374726f6b653d27776869746527207374726f6b652d6f7061636974793d27302e35272f3e3c73796d626f6c2069643d274c414e444d41524b5f545950455f32272077696474683d273627206865696768743d2736273e3c7376672077696474683d273627206865696768743d2736272076696577426f783d27302030203132203132272066696c6c3d276e6f6e652720786d6c6e733d27687474703a2f2f7777772e77332e6f72672f323030302f737667273e3c646566733e3c6c696e6561724772616469656e742069643d277061696e74305f6c696e6561725f323337315f353538363833272078313d2731312e3132272079313d2731272078323d272d302e383632303538272079323d27372e313138343527206772616469656e74556e6974733d277573657253706163654f6e557365273e3c73746f70206f66667365743d2731272073746f702d636f6c6f723d2723353246463030272f3e3c2f6c696e6561724772616469656e743e3c2f646566733e3c2f7376673e3c2f73796d626f6c3e3c7265637420783d27332e36322720793d27332e35272077696474683d273527206865696768743d273527207374726f6b653d27626c61636b27207374726f6b652d6f7061636974793d27302e31272f3e3c646566733e3c6c696e6561724772616469656e742069643d277061696e74305f6c696e6561725f323337315f353538363932272078313d2731312e3132272079313d2731272078323d27312e3131393939272079323d27313127206772616469656e74556e6974733d277573657253706163654f6e557365273e3c6c696e6561724772616469656e742069643d277061696e74315f6c696e6561725f323337315f353538363932272078313d27382e3132272079313d2734272078323d27342e3132272079323d273827206772616469656e74556e6974733d277573657253706163654f6e557365273e3c7265637420783d27332e31322720793d2733272077696474683d273627206865696768743d2736272066696c6c3d2775726c28237061696e74315f6c696e6561725f323337335f35353934323429272f3e3c7265637420783d27332e31322720793d2733272077696474683d273627206865696768743d2736272066696c6c3d277768697465272f3e3c73796d626f6c2069643d27534954455f545950455f34272077696474683d273627206865696768743d2736273e3c73746f702073746f702d636f6c6f723d2723323339333738272f3e3c73746f70206f66667365743d2731272073746f702d636f6c6f723d2723343145323345272f3e3c2f6c696e6561724772616469656e743e3c646566733e3c6c696e6561724772616469656e742069643d277061696e74305f6c696e6561725f313332315f313239303133272078313d2731312e3132272079313d2731272078323d27312e3132272079323d27313127206772616469656e74556e6974733d277573657253706163654f6e557365273e2927207374726f6b653d276e6f6e65272072783d273525272072793d273525272f3e3c73766720783d273c646566733e3c6c696e6561724772616469656e742069643d277061696e74305f6c696e6561725f323337335f353539343234272078313d2731312e3132272079313d2731272078323d27312e3131393939272079323d27313127206772616469656e74556e6974733d277573657253706163654f6e557365273e3c73746f702073746f702d636f6c6f723d2723344334344130272f3e3c73746f70206f66667365743d2731272073746f702d636f6c6f723d2723324632433833272f3e3c2f6c696e6561724772616469656e743e3c73746f70206f66667365743d27302e373334333735272073746f702d636f6c6f723d2723374637304432272f3e3c73746f70206f66667365743d2731272073746f702d636f6c6f723d2723383237384632272f3e3c2f6c696e6561724772616469656e743e3c2f646566733e3c2f7376673e3c2f73796d626f6c3e3c6c696e6561724772616469656e742069643d27524f554e4445445f424f524445525f544945525f34272078313d2731303025272079313d2731362e3625272078323d2731303025272079323d273130302527206772616469656e74556e6974733d277573657253706163654f6e5573652720786d6c6e733d27687474703a2f2f7777772e77332e6f72672f323030302f737667273e3c73746f702073746f702d636f6c6f723d2723424531334145272f3e3c2f6c696e6561724772616469656e743e3c6c696e6561724772616469656e742069643d27424f4152445f424f54544f4d5f424f524445525f434f4c4f525f544945525f342720786d6c6e733d27687474703a2f2f7777772e77332e6f72672f323030302f737667273e3c7265637420783d27312e31322720793d2731272077696474683d27313027206865696768743d273130272066696c6c3d2775726c28237061696e74305f6c696e6561725f323337315f3535383639322927207374726f6b653d27776869746527207374726f6b652d6f7061636974793d27302e35272f3e3c646566733e3c6c696e6561724772616469656e742069643d277061696e74305f6c696e6561725f313332315f313239303131272078313d2731312e3132272079313d2731272078323d27312e3132272079323d27313127206772616469656e74556e6974733d277573657253706163654f6e557365273e3c6c696e6561724772616469656e742069643d27524f554e4445445f424f524445525f544945525f33272078313d2731303025272079313d2731362e3625272078323d2731303025272079323d273130302527206772616469656e74556e6974733d277573657253706163654f6e5573652720786d6c6e733d27687474703a2f2f7777772e77332e6f72672f323030302f737667273e3c7265637420783d27312e31322720793d2731272077696474683d27313027206865696768743d273130272066696c6c3d2775726c28237061696e74305f6c696e6561725f313332315f3132393031312927207374726f6b653d27776869746527207374726f6b652d6f7061636974793d27302e35272f3e3c7376672077696474683d273627206865696768743d2736272076696577426f783d27302030203132203132272066696c6c3d276e6f6e652720786d6c6e733d27687474703a2f2f7777772e77332e6f72672f323030302f737667273e3c73796d626f6c2069643d274c414e444d41524b5f545950455f35272077696474683d273627206865696768743d2736273e3c7376672077696474683d273627206865696768743d2736272076696577426f783d27302030203132203132272066696c6c3d276e6f6e652720786d6c6e733d27687474703a2f2f7777772e77332e6f72672f323030302f737667273e3c73746f702073746f702d636f6c6f723d2723384344344439272f3e3c73746f70206f66667365743d2731272073746f702d636f6c6f723d2723353938464136272f3e3c2f6c696e6561724772616469656e743e3c7265637420783d27312e31322720793d2731272077696474683d27313227206865696768743d273132272066696c6c3d2775726c2823736974652d747970652d312927207374726f6b653d27776869746527207374726f6b652d6f7061636974793d27302e35272f3e3c6c696e6561724772616469656e742069643d274752414449454e545f424f4152445f544945525f32272078313d27353025272079313d2730272078323d27353025272079323d273130302527206772616469656e74556e6974733d277573657253706163654f6e5573652720786d6c6e733d27687474703a2f2f7777772e77332e6f72672f323030302f737667273e3c73746f70206f66667365743d2731272073746f702d636f6c6f723d2723394132344543272f3e3c2f6c696e6561724772616469656e743e3c6c696e6561724772616469656e742069643d277061696e74315f6c696e6561725f323337335f353539343234272078313d27392e3132272079313d2733272078323d27332e3132272079323d273927206772616469656e74556e6974733d277573657253706163654f6e557365273e3c73746f702073746f702d636f6c6f723d2723333146323746272f3e3c73746f70206f66667365743d27302e323936383735272073746f702d636f6c6f723d2723463442453836272f3e3c73746f70206f66667365743d27302e353738313235272073746f702d636f6c6f723d2723423236464432272f3e3c73746f702073746f702d636f6c6f723d277768697465272f3e3c73746f70206f66667365743d27302e353434353835272073746f702d636f6c6f723d2723464644363030272f3e3c73746f70206f66667365743d2731272073746f702d636f6c6f723d2723464639393030272f3e4142434445464748494a4b4c4d4e4f505152535455565758595a6162636465666768696a6b6c6d6e6f707172737475767778797a303132333435363738392b2f3c7265637420783d27312e31322720793d2731272077696474683d27313027206865696768743d273130272066696c6c3d2775726c28237061696e74305f6c696e6561725f313332315f3132393031332927207374726f6b653d27776869746527207374726f6b652d6f7061636974793d27302e35272f3e3c737667206865696768743d2739372e3625272077696474683d273130302527207374726f6b652d77696474683d27322720786d6c6e733d27687474703a2f2f7777772e77332e6f72672f323030302f737667273e272077696474683d273627206865696768743d27362720786d6c6e733d27687474703a2f2f7777772e77332e6f72672f323030302f737667273e3c75736520687265663d2723534954455f545950455f3c7265637420783d27312e31322720793d2731272077696474683d27313027206865696768743d273130272066696c6c3d2775726c28237061696e74305f6c696e6561725f323337315f3535383638392927207374726f6b653d27776869746527207374726f6b652d6f7061636974793d27302e35272f3e29273e3c7061746820643d274d20332030204c2030203020302033272066696c6c3d276e6f6e6527207374726f6b652d77696474683d27302e332527207374726f6b653d272331333041324127207374726f6b652d6f7061636974793d27302e3227202f3e3c73746f702073746f702d636f6c6f723d2723353635363536272f3e3c73746f70206f66667365743d2731272f3e3c2f6c696e6561724772616469656e743e3c2f646566733e3c2f7376673e3c2f73796d626f6c3e3c73796d626f6c2069643d274c414e444d41524b5f545950455f36272077696474683d273627206865696768743d2736273e3c7376672077696474683d273627206865696768743d2736272076696577426f783d27302030203132203132272066696c6c3d276e6f6e652720786d6c6e733d27687474703a2f2f7777772e77332e6f72672f323030302f737667273e3c73746f702073746f702d636f6c6f723d2723313834423030272f3e3c73746f70206f66667365743d2731272073746f702d636f6c6f723d2723353246463030272f3e3c2f6c696e6561724772616469656e743e3c73796d626f6c2069643d27534954455f545950455f33272077696474683d273627206865696768743d2736273e3c73746f702073746f702d636f6c6f723d2723666666272073746f702d6f7061636974793d27302e3338272f3e3c73746f70206f66667365743d2731272073746f702d636f6c6f723d2723666666272073746f702d6f7061636974793d27302e3038272f3e3c2f6c696e6561724772616469656e743e3c646566733e3c6c696e6561724772616469656e742069643d277061696e74305f6c696e6561725f323337315f353538363935272078313d2731312e3132272079313d2731272078323d27312e3132272079323d27313127206772616469656e74556e6974733d277573657253706163654f6e557365273e3c7265637420783d27342e37322720793d27342e3539393938272077696474683d27342e3827206865696768743d27342e38272066696c6c3d277768697465272f3e3c2f7061747465726e3e3c73796d626f6c2069643d274c414e444d41524b5f545950455f31272077696474683d273627206865696768743d2736273e3c7376672077696474683d273627206865696768743d2736272076696577426f783d27302030203134203134272066696c6c3d276e6f6e652720786d6c6e733d27687474703a2f2f7777772e77332e6f72672f323030302f737667273e3c7265637420783d27312e31322720793d2731272077696474683d27313027206865696768743d273130272066696c6c3d2775726c28237061696e74305f6c696e6561725f323337335f3535393432342927207374726f6b653d27776869746527207374726f6b652d6f7061636974793d27302e35272f3e3c73746f702073746f702d636f6c6f723d2723384344344439272f3e3c73746f70206f66667365743d2731272073746f702d636f6c6f723d2723353938464136272f3e3c2f6c696e6561724772616469656e743e3c2f646566733e3c2f7376673e3c2f73796d626f6c3e3c73746f702073746f702d636f6c6f723d2723383132444544272f3e3c73746f70206f66667365743d2731272073746f702d636f6c6f723d2723463130304439272f3e3c2f6c696e6561724772616469656e743e3c7061747465726e2069643d27736d616c6c47726964272077696474683d273327206865696768743d273327207061747465726e556e6974733d277573657253706163654f6e55736527207061747465726e5472616e73666f726d3d27726f74617465283435203c73746f702073746f702d636f6c6f723d2723353635363536272f3e3c73746f70206f66667365743d2731272f3e3c2f6c696e6561724772616469656e743e3c7265637420783d27342e31322720793d2734272077696474683d273427206865696768743d2734272066696c6c3d2775726c28237061696e74315f6c696e6561725f323337315f35353836393529272f3e3c6c696e6561724772616469656e742069643d274752414449454e545f424f4152445f544945525f33272078313d27353025272079313d2731303025272078323d27353025272079323d273027206772616469656e74556e6974733d277573657253706163654f6e5573652720786d6c6e733d27687474703a2f2f7777772e77332e6f72672f323030302f737667273e3c7376672077696474683d273627206865696768743d2736272076696577426f783d27302030203134203134272066696c6c3d276e6f6e652720786d6c6e733d27687474703a2f2f7777772e77332e6f72672f323030302f737667273e3c726563742072783d273525272072793d273525272077696474683d273130302527206865696768743d27393925272066696c6c3d2775726c2823424f4152445f424f54544f4d5f424f524445525f434f4c4f525f544945525f3c73746f70206f66667365743d27302e313330323038272073746f702d636f6c6f723d2723454644373030272f3e3c73746f70206f66667365743d27302e36383735272073746f702d636f6c6f723d2723464635374545272f3e3c73746f70206f66667365743d2731272073746f702d636f6c6f723d2723394132344543272f3e4465736372696265732074686520617373657420746f2077686963682074686973204e465420726570726573656e7473272066696c6c3d2775726c2823736d616c6c477269642927207374726f6b653d276e6f6e6527202072783d273325272072793d27332527202f3e3c67207472616e73666f726d3d27726f746174652834352027203e3c67207472616e73666f726d3d277363616c6528312e333429272072783d273525272072793d27352527203e3c7265637420783d273c7265637420783d27312e31322720793d2731272077696474683d27313027206865696768743d273130272066696c6c3d2775726c28237061696e74305f6c696e6561725f313332315f3132393031352927207374726f6b653d27776869746527207374726f6b652d6f7061636974793d27302e35272f3e3c7265637420783d27312e31322720793d2731272077696474683d27313027206865696768743d273130272066696c6c3d2775726c28237061696e74305f6c696e6561725f323337315f3535383639352927207374726f6b653d27776869746527207374726f6b652d6f7061636974793d27302e35272f3e3c2f6c696e6561724772616469656e743e3c2f646566733e3c2f7376673e3c2f73796d626f6c3e3c6c696e6561724772616469656e742069643d27424f4152445f424f54544f4d5f424f524445525f434f4c4f525f544945525f352720786d6c6e733d27687474703a2f2f7777772e77332e6f72672f323030302f737667273e3c2f6c696e6561724772616469656e743e3c6c696e6561724772616469656e742069643d274752414449454e545f424f4152445f544945525f34272078313d27353025272079313d2731303025272078323d27353025272079323d273027206772616469656e74556e6974733d277573657253706163654f6e5573652720786d6c6e733d27687474703a2f2f7777772e77332e6f72672f323030302f737667273e3c646566733e3c6c696e6561724772616469656e742069643d277061696e74305f6c696e6561725f323337315f353538363737272078313d2731332e3132272079313d2731272078323d27312e3132272079323d27313327206772616469656e74556e6974733d277573657253706163654f6e557365273e3c73746f702073746f702d636f6c6f723d2723363132344145272f3e3c2f6c696e6561724772616469656e743e3c6c696e6561724772616469656e742069643d27424f4152445f424f54544f4d5f424f524445525f434f4c4f525f544945525f322720786d6c6e733d27687474703a2f2f7777772e77332e6f72672f323030302f737667273e3c73746f702073746f702d636f6c6f723d2723434245324646272f3e3c73746f70206f66667365743d2731272073746f702d636f6c6f723d2723454645464546272f3e3c2f6c696e6561724772616469656e743e3c73746f702073746f702d636f6c6f723d277768697465272f3e3c73746f70206f66667365743d27302e353434353835272073746f702d636f6c6f723d2723464644363030272f3e3c73746f70206f66667365743d2731272073746f702d636f6c6f723d2723464639393030272f3e3c2f6c696e6561724772616469656e743e3c73796d626f6c2069643d274c414e444d41524b5f545950455f37272077696474683d273627206865696768743d2736273e3c7376672077696474683d273627206865696768743d2736272076696577426f783d27302030203132203132272066696c6c3d276e6f6e652720786d6c6e733d27687474703a2f2f7777772e77332e6f72672f323030302f737667273e3c73796d626f6c2069643d274c414e444d41524b5f545950455f34272077696474683d273627206865696768743d2736273e3c7376672077696474683d273627206865696768743d2736272076696577426f783d27302030203132203132272066696c6c3d276e6f6e652720786d6c6e733d27687474703a2f2f7777772e77332e6f72672f323030302f737667273e3c73746f702073746f702d636f6c6f723d2723314637343630272f3e3c2f6c696e6561724772616469656e743e3c6c696e6561724772616469656e742069643d27424f4152445f424f54544f4d5f424f524445525f434f4c4f525f544945525f332720786d6c6e733d27687474703a2f2f7777772e77332e6f72672f323030302f737667273e3c73746f702073746f702d636f6c6f723d2723443246464439272f3e3c73746f70206f66667365743d2731272073746f702d636f6c6f723d2723463332424531272f3e3c2f6c696e6561724772616469656e743e3c6c696e6561724772616469656e742069643d277061696e74315f6c696e6561725f323337315f353538363737272078313d27392e3532272079313d27342e3539393938272078323d27342e3732272079323d27392e333939393827206772616469656e74556e6974733d277573657253706163654f6e557365273e3c73746f702073746f702d636f6c6f723d2723434245324646272f3e3c73746f70206f66667365743d2731272073746f702d636f6c6f723d2723454645464546272f3e3c2f6c696e6561724772616469656e743e3c2f646566733e3c2f7376673e3c2f73796d626f6c3e3c646566733e3c6c696e6561724772616469656e742069643d277061696e74305f6c696e6561725f313332315f313239303135272078313d2731312e3132272079313d2731272078323d27312e3131393939272079323d27313127206772616469656e74556e6974733d277573657253706163654f6e557365273e3c73796d626f6c2069643d274c414e444d41524b5f545950455f33272077696474683d273627206865696768743d2736273e3c7376672077696474683d273627206865696768743d2736272076696577426f783d27302030203132203132272066696c6c3d276e6f6e652720786d6c6e733d27687474703a2f2f7777772e77332e6f72672f323030302f737667273e3c73746f70206f66667365743d27302e35272073746f702d636f6c6f723d2723324435314544272f3e3c73746f70206f66667365743d27302e363731383735272073746f702d636f6c6f723d2723303036304631272f3e3c73746f70206f66667365743d27302e383333333333272073746f702d636f6c6f723d2723463130304439272f3e3c7265637420783d27342e31322720793d2734272077696474683d273427206865696768743d2734272066696c6c3d2775726c28237061696e74315f6c696e6561725f323337315f35353836383629272f3e3c7265637420783d27342e31322720793d2734272077696474683d273427206865696768743d2734272066696c6c3d277768697465272f3e3c7265637420783d27332e36322720793d27332e35272077696474683d273527206865696768743d273527207374726f6b653d27626c61636b27207374726f6b652d6f7061636974793d27302e31272f3e3c6c696e6561724772616469656e742069643d277061696e74315f6c696e6561725f323337315f353538363839272078313d27382e3132272079313d2734272078323d27342e3132272079323d273827206772616469656e74556e6974733d277573657253706163654f6e557365273e3c646566733e3c6c696e6561724772616469656e742069643d277061696e74305f6c696e6561725f313332315f313239303137272078313d2731312e3132272079313d2731272078323d27312e3132272079323d27313127206772616469656e74556e6974733d277573657253706163654f6e557365273e272077696474683d273627206865696768743d27362720786d6c6e733d27687474703a2f2f7777772e77332e6f72672f323030302f737667273e3c75736520687265663d27234c414e444d41524b5f545950455f3c7265637420783d27312e31322720793d2731272077696474683d27313027206865696768743d273130272066696c6c3d2775726c28237061696e74305f6c696e6561725f323337315f3535383638362927207374726f6b653d27776869746527207374726f6b652d6f7061636974793d27302e35272f3e3c73796d626f6c2069643d27534954455f545950455f35272077696474683d273627206865696768743d2736273e3c73796d626f6c2069643d27534954455f545950455f32272077696474683d273627206865696768743d2736273e3c646566733e3c73796d626f6c2069643d27534954455f545950455f31272077696474683d273627206865696768743d2736273e3c7265637420783d27322e36322720793d27322e35272077696474683d273727206865696768743d273727207374726f6b653d27626c61636b27207374726f6b652d6f7061636974793d27302e31272f3e3c73746f702073746f702d636f6c6f723d2723303843453031272f3e3c73746f70206f66667365743d27302e313731383735272073746f702d636f6c6f723d2723434545463030272f3e3c73746f70206f66667365743d27302e3334333735272073746f702d636f6c6f723d2723353146393830272f3e3c646566733e3c6c696e6561724772616469656e742069643d27736974652d747970652d31272078313d2731332e3132272079313d2731272078323d27312e3132272079323d27313327206772616469656e74556e6974733d277573657253706163654f6e557365273e3c6c696e6561724772616469656e742069643d277061696e74315f6c696e6561725f323337315f353538363836272078313d27382e3132272079313d2734272078323d27342e3132272079323d273827206772616469656e74556e6974733d277573657253706163654f6e557365273e3c6c696e6561724772616469656e742069643d274752414449454e545f424f4152445f544945525f31272078313d27353025272079313d2730272078323d27353025272079323d273130302527206772616469656e74556e6974733d277573657253706163654f6e5573652720786d6c6e733d27687474703a2f2f7777772e77332e6f72672f323030302f737667273e3c6c696e6561724772616469656e742069643d277061696e74315f6c696e6561725f323337315f353538363833272078313d27382e3132272079313d2734272078323d27342e3132272079323d273827206772616469656e74556e6974733d277573657253706163654f6e557365273e3c7265637420783d27312e31322720793d2731272077696474683d27313027206865696768743d273130272066696c6c3d2775726c28237061696e74305f6c696e6561725f313332315f3132393031372927207374726f6b653d27776869746527207374726f6b652d6f7061636974793d27302e35272f3e3c7265637420783d27342e31322720793d2734272077696474683d273427206865696768743d2734272066696c6c3d2775726c28237061696e74315f6c696e6561725f323337315f35353836383929272f3e3c7265637420783d27342e31322720793d2734272077696474683d273427206865696768743d2734272066696c6c3d277768697465272f3e3c7265637420783d27342e31322720793d2734272077696474683d273427206865696768743d2734272066696c6c3d2775726c28237061696e74315f6c696e6561725f323337315f35353836393229272f3e3c7265637420783d27342e31322720793d2734272077696474683d273427206865696768743d2734272066696c6c3d277768697465272f3ea264697066735822122028dc2e71f86dbcde1a514b41bf8184104f6c613aa1f03826bdbd8ebd60e6f1a564736f6c63430008070033",
  "devdoc": {
    "author": "Pedro Bergamini, Basil Gorin",
    "kind": "dev",
    "methods": {
      "tokenURI(uint256)": {
        "params": {
          "_tokenId": "token ID of the land plot to generate SVG for"
        }
      }
    },
    "title": "Land Descriptor Implementation",
    "version": 1
  },
  "userdoc": {
    "errors": {
      "PRBMathUD60x18__FromUintOverflow(uint256)": [
        {
          "notice": "Emitted when converting a basic integer to the fixed-point format format overflows UD60x18."
        }
      ],
      "PRBMath__MulDivFixedPointOverflow(uint256)": [
        {
          "notice": "Emitted when the result overflows uint256."
        }
      ],
      "PRBMath__MulDivOverflow(uint256,uint256)": [
        {
          "notice": "Emitted when the result overflows uint256."
        }
      ]
    },
    "kind": "user",
    "methods": {
      "tokenURI(uint256)": {
        "notice": "Creates SVG image with the land plot metadata painted on it,      encodes the generated SVG into base64 URI string"
      }
    },
    "notice": "Basic implementation of the LandDescriptor interface",
    "version": 1
  },
  "storageLayout": {
    "storage": [],
    "types": null
  }
}