{
  "address": "0x813f66F971d437f328D2730845D634855595ED7F",
  "abi": [
    {
      "inputs": [
        {
          "components": [
            {
              "internalType": "uint8",
              "name": "regionId",
              "type": "uint8"
            },
            {
              "internalType": "uint16",
              "name": "x",
              "type": "uint16"
            },
            {
              "internalType": "uint16",
              "name": "y",
              "type": "uint16"
            },
            {
              "internalType": "uint8",
              "name": "tierId",
              "type": "uint8"
            },
            {
              "internalType": "uint16",
              "name": "size",
              "type": "uint16"
            },
            {
              "internalType": "uint8",
              "name": "landmarkTypeId",
              "type": "uint8"
            },
            {
              "internalType": "uint8",
              "name": "elementSites",
              "type": "uint8"
            },
            {
              "internalType": "uint8",
              "name": "fuelSites",
              "type": "uint8"
            },
            {
              "components": [
                {
                  "internalType": "uint8",
                  "name": "typeId",
                  "type": "uint8"
                },
                {
                  "internalType": "uint16",
                  "name": "x",
                  "type": "uint16"
                },
                {
                  "internalType": "uint16",
                  "name": "y",
                  "type": "uint16"
                }
              ],
              "internalType": "struct LandLib.Site[]",
              "name": "sites",
              "type": "tuple[]"
            }
          ],
          "internalType": "struct LandLib.PlotView",
          "name": "_plot",
          "type": "tuple"
        }
      ],
      "name": "tokenURI",
      "outputs": [
        {
          "internalType": "string",
          "name": "",
          "type": "string"
        }
      ],
      "stateMutability": "pure",
      "type": "function"
    }
  ],
  "transactionHash": "0x8349cec8c0e50437a624d37a04c828caef3160284c910720fcf3b69e046cc4d1",
  "args": [],
  "solcInputHash": "d9b7bb2ed92823a8e2ecc929072121d3",
  "bytecode": "0x608060405234801561001057600080fd5b506136a5806100206000396000f3fe608060405234801561001057600080fd5b506004361061002b5760003560e01c8063a8e0dc5114610030575b600080fd5b61004361003e366004611ec4565b610059565b6040516100509190612119565b60405180910390f35b6060600061006b61010084018461214c565b905067ffffffffffffffff8111156100855761008561229f565b6040519080825280602002602001820160405280156100d057816020015b60408051606081018252600080825260208083018290529282015282526000199092019101816100a35790505b50905060005b6100e461010085018561214c565b90508110156101e15760408051606081019091528061010761010087018761214c565b8481811061011757610117612289565b61012d9260206060909202019081019150611f24565b60ff16815260200161014361010087018761214c565b8481811061015357610153612289565b905060600201602001602081019061016b9190611f00565b61ffff16815260200161018261010087018761214c565b8481811061019257610192612289565b90506060020160400160208101906101aa9190611f00565b61ffff168152508282815181106101c3576101c3612289565b602002602001018190525080806101d99061222e565b9150506100d6565b506102286101f26020850185611f24565b6102026040860160208701611f00565b6102126060870160408801611f00565b6102226080880160608901611f24565b8561022f565b9392505050565b6060600061023f878787876102bc565b9050600061024b61031c565b9050600061026161025c878761033c565b61050d565b905061028f83838360405160200161027b93929190611f76565b60405160208183030381529060405261050d565b60405160200161029f919061203d565b604051602081830303815290604052935050505095945050505050565b60606102ca8260ff16610673565b6102d68660ff16610673565b6102e38661ffff16610673565b6102f08661ffff16610673565b6040516020016103039493929190612082565b6040516020818303038152906040529050949350505050565b606060405180606001604052806030815260200161314360309139905090565b60606000610348610771565b5060408051600680825260e0820190925290816020015b606081526020019060019003908161035f57905050905060005b610381610771565b5060068110156104fb5760408051808201909152600c81526b1310539117d512515497d25160a21b6020909101527f46365eebe04e8ac0a778dfd6950c342779f70c00dfafeae448ca65e393b3a2ea6103d8610771565b82600681106103e9576103e9612289565b6020020151805190602001201415610429576104078560ff16610673565b82828151811061041957610419612289565b60200260200101819052506104e9565b604080518082019091526016815275232aaa2aa922afa127a0a9222fa1a7a72a20a4a722a960511b6020909101527f3065a2bdc2e59b9652d66372c4bbb02fd02ed2843a45fc5cacea675188b6b601610480610771565b826006811061049157610491612289565b60200201518051906020012014156104ad576104078585610870565b6104b5610771565b81600681106104c6576104c6612289565b60200201518282815181106104dd576104dd612289565b60200260200101819052505b806104f38161222e565b915050610379565b5061050581610a29565b949350505050565b606081516000141561052d57505060408051602081019091526000815290565b6000604051806060016040528060408152602001612dc6604091399050600060038451600261055c919061219c565b61056691906121b4565b6105719060046121c8565b9050600061058082602061219c565b67ffffffffffffffff8111156105985761059861229f565b6040519080825280601f01601f1916602001820160405280156105c2576020820181803683370190505b509050818152600183018586518101602084015b8183101561062e576003830192508251603f8160121c168501518253600182019150603f81600c1c168501518253600182019150603f8160061c168501518253600182019150603f81168501518253506001016105d6565b600389510660018114610648576002811461065957610665565b613d3d60f01b600119830152610665565b603d60f81b6000198301525b509398975050505050505050565b6060816106975750506040805180820190915260018152600360fc1b602082015290565b8160005b81156106c157806106ab8161222e565b91506106ba9050600a836121b4565b915061069b565b60008167ffffffffffffffff8111156106dc576106dc61229f565b6040519080825280601f01601f191660200182016040528015610706576020820181803683370190505b5090505b84156105055761071b6001836121e7565b9150610728600a86612249565b61073390603061219c565b60f81b81838151811061074857610748612289565b60200101906001600160f81b031916908160001a90535061076a600a866121b4565b945061070a565b610779611e67565b604080516101808101909152608260c0820181815282916125d160e084013981526020016040518060a00160405280606681526020016135576066913981526020016040518060400160405280600c81526020016b1310539117d512515497d25160a21b81525081526020016040518060400160405280601281526020017114939039ba3937b5b29e93b737b73293979f60711b815250815260200160405180604001604052806016815260200175232aaa2aa922afa127a0a9222fa1a7a72a20a4a722a960511b8152508152602001604051806040016040528060068152602001651e17b9bb339f60d11b815250815250905090565b6060600061087c610ab6565b50604080516069808252610d40820190925290816020015b606081526020019060019003908161089457905050905060005b6108b6610ab6565b5060698110156104fb5760408051808201909152600c81526b1310539117d512515497d25160a21b6020909101527f46365eebe04e8ac0a778dfd6950c342779f70c00dfafeae448ca65e393b3a2ea61090d610ab6565b826069811061091e5761091e612289565b602002015180519060200120141561095e5761093c8560ff16610673565b82828151811061094e5761094e612289565b6020026020010181905250610a17565b60408051808201909152601081526f14d2551154d7d413d4d2551253d3915160821b6020909101527f64f2783640c4865674ec13c6e235087b6aaeda1ce8c00ab5be599bc1410e90336109af610ab6565b82606981106109c0576109c0612289565b60200201518051906020012014156109db5761093c846119ad565b6109e3610ab6565b81606981106109f4576109f4612289565b6020020151828281518110610a0b57610a0b612289565b60200260200101819052505b80610a218161222e565b9150506108ae565b60608060005b8351811015610aaf578015610a805781848281518110610a5157610a51612289565b6020026020010151604051602001610a6a929190611f47565b6040516020818303038152906040529150610a9d565b838181518110610a9257610a92612289565b602002602001015191505b80610aa78161222e565b915050610a2f565b5092915050565b610abe611e8e565b60408051610dc081019091526064610d2082018181528291612542610d408401398152602001604051806040016040528060068152602001651e3232b3399f60d11b81525081526020016040518060a0016040528060638152602001612e066063913981526020016040518060600160405280602981526020016136476029913981526020016040518060600160405280602d8152602001612a2e602d913981526020016040518060600160405280602d8152602001612b79602d913981526020016040518060600160405280602d81526020016130b3602d913981526020016040518060600160405280602b81526020016122f7602b913981526020016040518060400160405280601181526020016000805160206131c683398151915281525081526020016040518060a00160405280606381526020016135bd6063913981526020016040518060600160405280602981526020016127dc6029913981526020016040518060600160405280602b8152602001612805602b913981526020016040518060400160405280601181526020016000805160206131c683398151915281525081526020016040518060a0016040528060638152602001612385606391398152602001604051806060016040528060298152602001612ad06029913981526020016040518060600160405280602b8152602001612f61602b913981526020016040518060400160405280601181526020016000805160206131c683398151915281525081526020016040518060a0016040528060638152602001612322606391398152602001604051806060016040528060298152602001612af96029913981526020016040518060600160405280602b81526020016125a6602b913981526020016040518060400160405280601181526020016000805160206131c683398151915281525081526020016040518060a0016040528060638152602001612720606391398152602001604051806060016040528060298152602001612fd36029913981526020016040518060600160405280602b8152602001612b4e602b913981526020016040518060400160405280601181526020016000805160206131c683398151915281525081526020016040518060a00160405280606381526020016130e060639139815260200160405180606001604052806029815260200161320d6029913981526020016040518060600160405280602d8152602001612d78602d913981526020016040518060600160405280602b81526020016128ed602b913981526020016040518060400160405280601181526020016000805160206131c683398151915281525081526020016040518060800160405280605981526020016132366059913981526020016040518060400160405280601c81526020017f3c73746f702073746f702d636f6c6f723d2723424531334145272f3e0000000081525081526020016040518060400160405280601181526020016000805160206131c683398151915281525081526020016040518060800160405280605981526020016127836059913981526020016040518060400160405280601c81526020017f3c73746f702073746f702d636f6c6f723d2723314637343630272f3e0000000081525081526020016040518060400160405280601181526020016000805160206131c68339815191528152508152602001604051806080016040528060598152602001612e696059913981526020016040518060400160405280601c81526020017f3c73746f702073746f702d636f6c6f723d2723363132344145272f3e0000000081525081526020016040518060400160405280601181526020016000805160206131c683398151915281525081526020016040518060800160405280605981526020016124846059913981526020016040518060400160405280601c81526020017f3c73746f702073746f702d636f6c6f723d2723353335304141272f3e0000000081525081526020016040518060400160405280601181526020016000805160206131c6833981519152815250815260200160405180608001604052806059815260200161331f6059913981526020016040518060400160405280601c81526020017f3c73746f702073746f702d636f6c6f723d2723324332423637272f3e0000000081525081526020016040518060400160405280601181526020016000805160206131c683398151915281525081526020016040518060c00160405280608f8152602001612691608f913981526020016040518060600160405280602e8152602001613401602e913981526020016040518060600160405280602c8152602001612b22602c91398152602001604051806060016040528060278152602001612aa96027913981526020016040518060400160405280601181526020016000805160206131c683398151915281525081526020016040518060e0016040528060a3815260200161342f60a3913981526020016040518060400160405280601c81526020017f3c73746f702073746f702d636f6c6f723d2723323339333738272f3e0000000081525081526020016040518060600160405280602781526020016129a86027913981526020016040518060400160405280601181526020016000805160206131c683398151915281525081526020016040518060e0016040528060a38152602001612cd560a3913981526020016040518060400160405280601c81526020017f3c73746f702073746f702d636f6c6f723d2723383132444544272f3e0000000081525081526020016040518060600160405280602781526020016131e66027913981526020016040518060400160405280601181526020016000805160206131c683398151915281525081526020016040518060c00160405280609f8152602001612ba6609f913981526020016040518060400160405280601c81526020017f3c73746f702073746f702d636f6c6f723d2723374444364632272f3e00000000815250815260200160405180606001604052806027815260200161245d6027913981526020016040518060400160405280601181526020016000805160206131c683398151915281525081526020016040518060c00160405280609f8152602001612ec2609f913981526020016040518060400160405280601c81526020017f3c73746f702073746f702d636f6c6f723d2723344334344130272f3e0000000081525081526020016040518060600160405280602781526020016136206027913981526020016040518060400160405280601181526020016000805160206131c683398151915281525081526020016040518060c001604052806090815260200161328f6090913981526020016040518060400160405280601c81526020017f3c73746f702073746f702d636f6c6f723d2723443246464439272f3e000000008152508152602001604051806060016040528060278152602001612ffc6027913981526020016040518060400160405280601181526020016000805160206131c683398151915281525081526020016040518060c00160405280609081526020016130236090913981526020016040518060600160405280602d81526020016128c0602d913981526020016040518060600160405280603881526020016123e86038913981526020016040518060400160405280601181526020016000805160206131c683398151915281525081526020016040518060c00160405280609081526020016129186090913981526020016040518060600160405280602d81526020016128c0602d913981526020016040518060600160405280603881526020016123e86038913981526020016040518060400160405280601181526020016000805160206131c683398151915281525081526020016040518060c00160405280609081526020016128306090913981526020016040518060600160405280602d81526020016128c0602d913981526020016040518060600160405280603881526020016123e86038913981526020016040518060400160405280601181526020016000805160206131c683398151915281525081526020016040518060c0016040528060908152602001612c456090913981526020016040518060600160405280602d81526020016128c0602d913981526020016040518060600160405280603881526020016123e86038913981526020016040518060400160405280601181526020016000805160206131c683398151915281525081526020016040518060c00160405280608981526020016133786089913981526020016040518060800160405280604e8152602001612a5b604e913981526020016040518060400160405280600a8152602001691e17b830ba3a32b9371f60b11b8152508152602001604051806040016040528060078152602001661e17b232b3399f60c91b81525081526020016040518060400160405280602081526020017f3c672066696c6c3d276e6f6e6527207374726f6b652d77696474683d2730273e81525081526020016040518060600160405280603e8152602001612653603e913981526020016040518060400160405280600c81526020016b1310539117d512515497d25160a21b81525081526020016040518060400160405280602081526020017f2927207374726f6b653d276e6f6e65272072783d2738272072793d2738272f3e8152508152602001604051806040016040528060048152602001631e17b39f60e11b81525081526020016040518060a00160405280606581526020016124dd6065913981526020016040518060800160405280604181526020016122b66041913981526020016040518060600160405280603681526020016134d26036913981526020016040518060400160405280601081526020016f14d2551154d7d413d4d2551253d3915160821b8152508152602001604051806040016040528060068152602001651e17b9bb339f60d11b8152508152602001604051806040016040528060048152602001631e17b39f60e11b81525081526020016040518060800160405280605381526020016131736053913981526020016040518060400160405280600c81526020016b1310539117d512515497d25160a21b8152508152602001604051806080016040528060478152602001612f8c604791398152602001604051806040016040528060068152602001651e17b9bb339f60d11b815250815250905090565b60606000825167ffffffffffffffff8111156119cb576119cb61229f565b6040519080825280602002602001820160405280156119fe57816020015b60608152602001906001900390816119e95790505b50905060005b8351811015611a5f57611a2f848281518110611a2257611a22612289565b6020026020010151611a69565b828281518110611a4157611a41612289565b60200260200101819052508080611a579061222e565b915050611a04565b5061022881610a29565b60606000611a75611caf565b5060408051600a808252610160820190925290816020015b6060815260200190600190039081611a8d57905050905060005b611aaf611caf565b50600a811015611a5f5760408051808201909152600c81526b14d2551157d516541157d25160a21b6020909101527f765e3af96dc8f25d47de5659ec621093c07fbb5f28b073ea942dd0e891b9bc47611b06611caf565b82600a8110611b1757611b17612289565b6020020151805190602001201415611b59578351611b379060ff16610673565b828281518110611b4957611b49612289565b6020026020010181905250611c9d565b60408051808201909152600f81526e29a4aa22afac2fa827a9a4aa24a7a760891b6020909101527fae66a03bc3027e0e0f17503841a571738e9c14766048054388d24a9fe9b9e797611ba9611caf565b82600a8110611bba57611bba612289565b6020020151805190602001201415611bdd57611b37846020015161ffff16611e40565b60408051808201909152600f81526e29a4aa22afacafa827a9a4aa24a7a760891b6020909101527fa5c680a64fadbffb6524652dd51a8509c773ed6172e8e6f16f8d299d4435c6f3611c2d611caf565b82600a8110611c3e57611c3e612289565b6020020151805190602001201415611c6157611b37846040015161ffff16611e40565b611c69611caf565b81600a8110611c7a57611c7a612289565b6020020151828281518110611c9157611c91612289565b60200260200101819052505b80611ca78161222e565b915050611aa7565b611cb7611ea9565b604080516101a08101909152602161014082018181528291612da561016084013981526020016040518060400160405280600f81526020016e29a4aa22afac2fa827a9a4aa24a7a760891b8152508152602001604051806040016040528060058152602001642720793d2760d81b81525081526020016040518060400160405280600f81526020016e29a4aa22afacafa827a9a4aa24a7a760891b81525081526020016040518060600160405280603d8152602001612420603d913981526020016040518060400160405280601b81526020017f3c726563742066696c6c3d2775726c2823534954455f545950455f000000000081525081526020016040518060400160405280600c81526020016b14d2551157d516541157d25160a21b81525081526020016040518060800160405280604f8152602001613508604f913981526020016040518060800160405280605f81526020016129cf605f91398152602001604051806040016040528060068152602001651e17b9bb339f60d11b815250815250905090565b6060611e616006611e528460036121c8565b611e5c91906121e7565b610673565b92915050565b6040518060c001604052806006905b6060815260200190600190039081611e765790505090565b60408051610d20810190915260608152606860208201611e76565b60408051610140810190915260608152600960208201611e76565b600060208284031215611ed657600080fd5b813567ffffffffffffffff811115611eed57600080fd5b8201610120818503121561022857600080fd5b600060208284031215611f1257600080fd5b813561ffff8116811461022857600080fd5b600060208284031215611f3657600080fd5b813560ff8116811461022857600080fd5b60008351611f598184602088016121fe565b835190830190611f6d8183602088016121fe565b01949350505050565b683d913730b6b2911d1160b91b81528351600090611f9b8160098501602089016121fe565b71111610113232b9b1b934b83a34b7b7111d1160711b6009918401918201528451611fcd81601b8401602089016121fe565b6c1116101134b6b0b3b2911d101160991b601b92909101918201527f646174613a696d6167652f7376672b786d6c3b6261736536342c000000000000602882015283516120218160428401602088016121fe565b61227d60f01b6042929091019182015260440195945050505050565b7f646174613a6170706c69636174696f6e2f6a736f6e3b6261736536342c20000081526000825161207581601e8501602087016121fe565b91909101601e0192915050565b6902630b732102a34b2b9160b51b8152600085516120a781600a850160208a016121fe565b630405a40560e31b600a9184019182015285516120cb81600e840160208a016121fe565b80820191505061016160f51b80600e83015285516120f0816010850160208a016121fe565b6010920191820152835161210b8160128401602088016121fe565b016012019695505050505050565b60208152600082518060208401526121388160408501602087016121fe565b601f01601f19169190910160400192915050565b6000808335601e1984360301811261216357600080fd5b83018035915067ffffffffffffffff82111561217e57600080fd5b602001915060608102360382131561219557600080fd5b9250929050565b600082198211156121af576121af61225d565b500190565b6000826121c3576121c3612273565b500490565b60008160001904831182151516156121e2576121e261225d565b500290565b6000828210156121f9576121f961225d565b500390565b60005b83811015612219578181015183820152602001612201565b83811115612228576000848401525b50505050565b60006000198214156122425761224261225d565b5060010190565b60008261225857612258612273565b500690565b634e487b7160e01b600052601160045260246000fd5b634e487b7160e01b600052601260045260246000fd5b634e487b7160e01b600052603260045260246000fd5b634e487b7160e01b600052604160045260246000fdfe3c67207472616e73666f726d3d277472616e736c6174652830202d38342e382920726f74617465283435203134302031343029207363616c6528312e333729273e3c73746f70206f66667365743d2731303025272073746f702d636f6c6f723d272338323738463227202f3e3c6c696e6561724772616469656e742069643d27534954455f545950455f3327206772616469656e745472616e73666f726d3d27726f74617465283435292720786d6c6e733d27687474703a2f2f7777772e77332e6f72672f323030302f737667273e3c6c696e6561724772616469656e742069643d27534954455f545950455f3227206772616469656e745472616e73666f726d3d27726f74617465283435292720786d6c6e733d27687474703a2f2f7777772e77332e6f72672f323030302f737667273e3c73746f70206f66667365743d2731272073746f702d636f6c6f723d2723666666272073746f702d6f7061636974793d27302e3038272f3e272077696474683d27313627206865696768743d2731362720786d6c6e733d27687474703a2f2f7777772e77332e6f72672f323030302f737667273e203c73746f70206f66667365743d2731272073746f702d636f6c6f723d2723363235454443272f3e3c6c696e6561724772616469656e742069643d27424f4152445f424f54544f4d5f424f524445525f434f4c4f525f544945525f322720786d6c6e733d27687474703a2f2f7777772e77332e6f72672f323030302f737667273e3c7265637420783d27312720793d2731272077696474683d2732373827206865696768743d273237372e35272066696c6c3d2775726c2823736d616c6c477269642927207374726f6b653d276e6f6e65272072783d2738272072793d2738272f3e202020203c73766720783d27302720793d2730272076696577426f783d273020302032383020323830272077696474683d2732383027206865696768743d273238302720786d6c6e733d27687474703a2f2f7777772e77332e6f72672f323030302f73766727203e3c73746f70206f66667365743d2731303025272073746f702d636f6c6f723d272335393846413627202f3e3c7376672077696474683d2732383027206865696768743d27323830272076696577426f783d273020302032383020323833272066696c6c3d276e6f6e6527207374726f6b653d272330303027207374726f6b6557696474683d2732272020786d6c6e733d27687474703a2f2f7777772e77332e6f72672f323030302f737667273e3c726563742077696474683d2732383027206865696768743d27323830272066696c6c3d2775726c28234752414449454e545f424f4152445f544945525f3c6c696e6561724772616469656e742069643d274752414449454e545f424f4152445f544945525f35272078313d27323830272079313d2730272078323d27323830272079323d2732383027206772616469656e74556e6974733d277573657253706163654f6e5573652720786d6c6e733d27687474703a2f2f7777772e77332e6f72672f323030302f737667273e3c6c696e6561724772616469656e742069643d27534954455f545950455f3127206772616469656e745472616e73666f726d3d27726f74617465283435292720786d6c6e733d27687474703a2f2f7777772e77332e6f72672f323030302f737667273e3c6c696e6561724772616469656e742069643d27424f4152445f424f54544f4d5f424f524445525f434f4c4f525f544945525f342720786d6c6e733d27687474703a2f2f7777772e77332e6f72672f323030302f737667273e3c73746f70206f66667365743d273025272073746f702d636f6c6f723d272331383442303027202f3e3c73746f70206f66667365743d2731303025272073746f702d636f6c6f723d272335324646303027202f3e3c6c696e6561724772616469656e742069643d27524f554e4445445f424f524445525f544945525f32272078313d27323830272079313d273530272078323d27323830272079323d2732383027206772616469656e74556e6974733d277573657253706163654f6e5573652720786d6c6e733d27687474703a2f2f7777772e77332e6f72672f323030302f737667273e3c73746f702073746f702d636f6c6f723d2723666666272073746f702d6f7061636974793d27302e3338272f3e3c73746f70206f66667365743d2731303025272073746f702d636f6c6f723d272346463939303027202f3e3c6c696e6561724772616469656e742069643d27524f554e4445445f424f524445525f544945525f33272078313d27323830272079313d273530272078323d27323830272079323d2732383027206772616469656e74556e6974733d277573657253706163654f6e5573652720786d6c6e733d27687474703a2f2f7777772e77332e6f72672f323030302f737667273e3c73746f70206f66667365743d2731272073746f702d636f6c6f723d2723343145323345272f3e3c72656374202077696474683d273527206865696768743d273527207374726f6b653d272366666627207374726f6b652d6f7061636974793d27302e3527207472616e73666f726d3d277472616e736c61746528302e3520302e3529272f3e3c73746f70206f66667365743d2732392e363925272073746f702d636f6c6f723d272346344245383627202f3e3c7061746820643d274d20332030204c2030203020302033272066696c6c3d276e6f6e652720207374726f6b653d272331333041324127207374726f6b652d6f7061636974793d27302e32272f3e3c73746f70206f66667365743d2731272073746f702d636f6c6f723d2723394132344543272f3e3c73746f70206f66667365743d273025272073746f702d636f6c6f723d272343424532464627202f3e3c73746f70206f66667365743d273025272073746f702d636f6c6f723d272338434434443927202f3e3c73746f70206f66667365743d27302e36383735272073746f702d636f6c6f723d2723464635374545272f3e3c73746f70206f66667365743d2731303025272073746f702d636f6c6f723d272330303030303027202f3e3c73746f70206f66667365743d2735372e383125272073746f702d636f6c6f723d272342323646443227202f3e3c6c696e6561724772616469656e742069643d274752414449454e545f424f4152445f544945525f32272078313d273134332e3539272079313d27312e3032353431652d3035272078323d273134332e3539272079323d2732383027206772616469656e74556e6974733d277573657253706163654f6e5573652720786d6c6e733d27687474703a2f2f7777772e77332e6f72672f323030302f737667273e3c6c696e6561724772616469656e742069643d27524f554e4445445f424f524445525f544945525f31272078313d27323830272079313d273530272078323d27323830272079323d2732383027206772616469656e74556e6974733d277573657253706163654f6e5573652720786d6c6e733d27687474703a2f2f7777772e77332e6f72672f323030302f737667273e3c6c696e6561724772616469656e742069643d274752414449454e545f424f4152445f544945525f33272078313d273134332e3539272079313d273237392e353036272078323d273134332e3539272079323d27322e3734343339652d303627206772616469656e74556e6974733d277573657253706163654f6e5573652720786d6c6e733d27687474703a2f2f7777772e77332e6f72672f323030302f737667273e3c73746f70206f66667365743d2735342e343625272073746f702d636f6c6f723d272346464436303027202f3e3c7376672076696577426f783d27302e31202d302e342031362031362720783d274142434445464748494a4b4c4d4e4f505152535455565758595a6162636465666768696a6b6c6d6e6f707172737475767778797a303132333435363738392b2f3c6c696e6561724772616469656e742069643d27534954455f545950455f3527206772616469656e745472616e73666f726d3d27726f74617465283435292720786d6c6e733d27687474703a2f2f7777772e77332e6f72672f323030302f737667273e3c6c696e6561724772616469656e742069643d27424f4152445f424f54544f4d5f424f524445525f434f4c4f525f544945525f332720786d6c6e733d27687474703a2f2f7777772e77332e6f72672f323030302f737667273e3c6c696e6561724772616469656e742069643d274752414449454e545f424f4152445f544945525f31272078313d273134332e3539272079313d27312e3032353431652d3035272078323d273134332e3539272079323d2732383027206772616469656e74556e6974733d277573657253706163654f6e5573652720786d6c6e733d27687474703a2f2f7777772e77332e6f72672f323030302f737667273e3c73746f70206f66667365743d2731303025272073746f702d636f6c6f723d272345464546454627202f3e2927207374726f6b652d77696474683d273127202072783d2737272072793d27372720786d6c6e733d27687474703a2f2f7777772e77332e6f72672f323030302f737667272f3e3c73746f70206f66667365743d273025272073746f702d636f6c6f723d272335363536353627202f3e3c73746f70206f66667365743d2731272073746f702d636f6c6f723d2723463332424531272f3e3c6c696e6561724772616469656e742069643d27524f554e4445445f424f524445525f544945525f34272078313d27323830272079313d273530272078323d27323830272079323d2732383027206772616469656e74556e6974733d277573657253706163654f6e5573652720786d6c6e733d27687474703a2f2f7777772e77332e6f72672f323030302f737667273e3c73746f70206f66667365743d2737332e343425272073746f702d636f6c6f723d272337463730443227202f3e3c6c696e6561724772616469656e742069643d27534954455f545950455f3627206772616469656e745472616e73666f726d3d27726f74617465283435292720786d6c6e733d27687474703a2f2f7777772e77332e6f72672f323030302f737667273e4465736372696265732074686520617373657420746f2077686963682074686973204e465420726570726573656e74733c7265637420783d27302e352720793d27302e34272077696474683d2732373927206865696768743d273237382e352720207374726f6b653d2775726c2823524f554e4445445f424f524445525f544945525f3c2f6c696e6561724772616469656e743e0000000000000000000000000000003c73746f70206f66667365743d2731272073746f702d636f6c6f723d2723463130304439272f3e3c73746f70206f66667365743d273025272073746f702d636f6c6f723d272346464646464627202f3e3c6c696e6561724772616469656e742069643d27424f4152445f424f54544f4d5f424f524445525f434f4c4f525f544945525f352720786d6c6e733d27687474703a2f2f7777772e77332e6f72672f323030302f737667273e3c6c696e6561724772616469656e742069643d27524f554e4445445f424f524445525f544945525f35272078313d27323830272079313d273530272078323d27323830272079323d2732383027206772616469656e74556e6974733d277573657253706163654f6e5573652720786d6c6e733d27687474703a2f2f7777772e77332e6f72672f323030302f737667273e3c6c696e6561724772616469656e742069643d27424f4152445f424f54544f4d5f424f524445525f434f4c4f525f544945525f312720786d6c6e733d27687474703a2f2f7777772e77332e6f72672f323030302f737667273e3c7061747465726e2069643d27736d616c6c47726964272077696474683d273327206865696768743d273327207061747465726e556e6974733d277573657253706163654f6e55736527207061747465726e5472616e73666f726d3d277472616e736c617465282d312e3520332e362920726f7461746528343529207363616c6528312e323829273e3c73746f70206f66667365743d27302e313330323038272073746f702d636f6c6f723d2723454644373030272f3e3c6c696e6561724772616469656e742069643d274752414449454e545f424f4152445f544945525f34272078313d273134332e3539272079313d273237392e353036272078323d273134332e3539272079323d27322e3734343339652d303627206772616469656e74556e6974733d277573657253706163654f6e5573652720786d6c6e733d27687474703a2f2f7777772e77332e6f72672f323030302f737667273e3c7376672076696577426f783d273020302e352033303720333036272077696474683d2732383727206865696768743d27323836273e29272077696474683d27342e3727206865696768743d27342e3727207374726f6b652d6f7061636974793d273027207472616e73666f726d3d277472616e736c61746528302e3720302e3729272f3e3c726563742072783d2738272072793d27382720783d27302e352720793d27323633272077696474683d2732373927206865696768743d273230272066696c6c3d2775726c2823424f4152445f424f54544f4d5f424f524445525f434f4c4f525f544945525f3c6c696e6561724772616469656e742069643d27534954455f545950455f3427206772616469656e745472616e73666f726d3d27726f74617465283435292720786d6c6e733d27687474703a2f2f7777772e77332e6f72672f323030302f737667273e3c73746f70206f66667365743d2731272073746f702d636f6c6f723d2723324632433833272f3e3c73746f70206f66667365743d273025272073746f702d636f6c6f723d272333314632374627202f3ea2646970667358221220e564bc6e4b14da05656bf1cbec71f189db96cb96bad81dc255d26d97b9d2fe7064736f6c63430008070033",
  "devdoc": {
    "kind": "dev",
    "methods": {
      "tokenURI((uint8,uint16,uint16,uint8,uint16,uint8,uint8,uint8,(uint8,uint16,uint16)[]))": {
        "details": "Generates a base64 json metada file based on data supplied by the      land contract.Plot data should be returned from the land contract in order to use      the NFTSvg library which is called ",
        "params": {
          "_plot": "Plot view data containing Sites array"
        }
      }
    },
    "version": 1
  },
  "userdoc": {
    "kind": "user",
    "methods": {},
    "version": 1
  },
  "storageLayout": {
    "storage": [],
    "types": null
  }
}